0029028690999991912010106004+65950+029200FM-12+025699999V0202301N002119999999N0000001N9-00171+99999096461ADDGF108991999999999999999999
0035028690999991912010113004+65950+029200FM-12+025699999V0200501N002119999999N0000001N9-00501+99999096861ADDGF108991999999999999999999MW1721
0029028690999991912010120004+65950+029200FM-12+025699999V0200901N004119999999N0000001N9-00781+99999096981ADDGF108991999999999999999999
0035028690999991912010206004+65950+029200FM-12+025699999V0200501N006219999999N0000001N9-01111+99999095921ADDGF108991999999999999999999MW1721
0035028690999991912010213004+65950+029200FM-12+025699999V0200501N006219999999N0000001N9-01001+99999095681ADDGF108991999999999999999999MW1721
0035028690999991912010220004+65950+029200FM-12+025699999V0200501N008219999999N0000001N9-01111+99999095991ADDGF108991999999999999999999MW1721
0029028690999991912010306004+65950+029200FM-12+025699999V0209991C000019999999N0000001N9-01501+99999096631ADDGF100991999999999999999999
0029028690999991912010313004+65950+029200FM-12+025699999V0209991C000019999999N0000001N9-01721+99999096801ADDGF106991999999999999999999
0029028690999991912010320004+65950+029200FM-12+025699999V0209991C000019999999N0000001N9-02171+99999096941ADDGF100991999999999999999999
0029028690999991912010406004+65950+029200FM-12+025699999V0209991C000019999999N0000001N9-02061+99999096941ADDGF100991999999999999999999
0029028690999991912010413004+65950+029200FM-12+025699999V0203601N002119999999N0000001N9-01831+99999096961ADDGF108991999999999999999999
0029028690999991912010420004+65950+029200FM-12+025699999V0203201N002119999999N0000001N9-02281+99999097081ADDGF100991999999999999999999
0029028690999991912010506004+65950+029200FM-12+025699999V0203201N002119999999N0000001N9-02501+99999097201ADDGF100991999999999999999999
0029028690999991912010513004+65950+029200FM-12+025699999V0209991C000019999999N0000001N9-02721+99999097201ADDGF100991999999999999999999
0029028690999991912010520004+65950+029200FM-12+025699999V0209991C000019999999N0000001N9-02561+99999097081ADDGF100991999999999999999999
0029028690999991912010606004+65950+029200FM-12+025699999V0209991C000019999999N0000001N9-03331+99999096911ADDGF100991999999999999999999
0029028690999991912010613004+65950+029200FM-12+025699999V0200501N002119999999N0000001N9-02781+99999096461ADDGF103991999999999999999999
0029028690999991912010620004+65950+029200FM-12+025699999V0200501N006219999999N0000001N9-01721+99999096461ADDGF108991999999999999999999
0029028690999991912010706004+65950+029200FM-12+025699999V0201601N002119999999N0000001N9-02171+99999096391ADDGF103991999999999999999999
0029028690999991912010713004+65950+029200FM-12+025699999V0201601N004119999999N0000001N9-02171+99999096461ADDGF102991999999999999999999
0029028690999991912010720004+65950+029200FM-12+025699999V0201101N002119999999N0000001N9-02501+99999096661ADDGF100991999999999999999999
0029028690999991912010806004+65950+029200FM-12+025699999V0201401N002119999999N0000001N9-03781+99999097201ADDGF100991999999999999999999
0029028690999991912010813004+65950+029200FM-12+025699999V0201401N002119999999N0000001N9-03671+99999097431ADDGF100991999999999999999999
0029028690999991912010820004+65950+029200FM-12+025699999V0209991C000019999999N0000001N9-04111+99999097671ADDGF100991999999999999999999
0029028690999991912010906004+65950+029200FM-12+025699999V0209991C000019999999N0000001N9-03001+99999097541ADDGF100991999999999999999999
0029028690999991912010913004+65950+029200FM-12+025699999V0209991C000019999999N0000001N9-03331+99999097191ADDGF100991999999999999999999
0029028690999991912010920004+65950+029200FM-12+025699999V0209991C000019999999N0000001N9-02501+99999096921ADDGF108991999999999999999999
0029028690999991912011006004+65950+029200FM-12+025699999V0209991C000019999999N0000001N9-02561+99999097101ADDGF100991999999999999999999
0029028690999991912011013004+65950+029200FM-12+025699999V0209991C000019999999N0000001N9-02171+99999097381ADDGF100991999999999999999999
0029028690999991912011020004+65950+029200FM-12+025699999V0209991C000019999999N0000001N9-02281+99999097821ADDGF100991999999999999999999
0029028690999991912011106004+65950+029200FM-12+025699999V0209991C000019999999N0000001N9-02061+99999098561ADDGF106991999999999999999999
0029028690999991912011113004+65950+029200FM-12+025699999V0209991C000019999999N0000001N9-01671+99999098961ADDGF108991999999999999999999
0029028690999991912011120004+65950+029200FM-12+025699999V0202301N002119999999N0000001N9-01001+99999099151ADDGF108991999999999999999999
0029028690999991912011206004+65950+029200FM-12+025699999V0202001N004119999999N0000001N9-01001+99999099271ADDGF108991999999999999999999
0029028690999991912011213004+65950+029200FM-12+025699999V0202001N004119999999N0000001N9-00671+99999099501ADDGF108991999999999999999999
0029028690999991912011220004+65950+029200FM-12+025699999V0202301N008219999999N0000001N9-00501+99999099521ADDGF108991999999999999999999
0029028690999991912011306004+65950+029200FM-12+025699999V0202001N008219999999N0000001N9-00391+99999100041ADDGF108991999999999999999999
0029028690999991912011313004+65950+029200FM-12+025699999V0202001N008219999999N0000001N9-00391+99999100661ADDGF108991999999999999999999
0029028690999991912011320004+65950+029200FM-12+025699999V0202301N009819999999N0000001N9-00441+99999100941ADDGF108991999999999999999999
0029028690999991912011406004+65950+029200FM-12+025699999V0202301N009819999999N0000001N9-00501+99999101481ADDGF108991999999999999999999
0029028690999991912011413004+65950+029200FM-12+025699999V0202301N009819999999N0000001N9-00941+99999101661ADDGF108991999999999999999999
0029028690999991912011420004+65950+029200FM-12+025699999V0202701N006219999999N0000001N9-01331+99999101641ADDGF100991999999999999999999
0029028690999991912011506004+65950+029200FM-12+025699999V0201801N002119999999N0000001N9-01831+99999101361ADDGF100991999999999999999999
0029028690999991912011513004+65950+029200FM-12+025699999V0201801N002119999999N0000001N9-01501+99999101071ADDGF100991999999999999999999
0029028690999991912011520004+65950+029200FM-12+025699999V0201801N002119999999N0000001N9-01611+99999100981ADDGF100991999999999999999999
0029028690999991912011606004+65950+029200FM-12+025699999V0203201N004119999999N0000001N9-01281+99999101061ADDGF108991999999999999999999
0029028690999991912011613004+65950+029200FM-12+025699999V0203201N002119999999N0000001N9-01671+99999101151ADDGF100991999999999999999999
0029028690999991912011620004+65950+029200FM-12+025699999V0203201N006219999999N0000001N9-00831+99999101281ADDGF108991999999999999999999
0029028690999991912011706004+65950+029200FM-12+025699999V0202701N004119999999N0000001N9-00781+99999101181ADDGF108991999999999999999999
0029028690999991912011713004+65950+029200FM-12+025699999V0202701N004119999999N0000001N9-00891+99999101281ADDGF108991999999999999999999
0029028690999991912011720004+65950+029200FM-12+025699999V0202701N002119999999N0000001N9-01001+99999101501ADDGF108991999999999999999999
0029028690999991912011806004+65950+029200FM-12+025699999V0203201N002119999999N0000001N9-00941+99999101581ADDGF108991999999999999999999
0029028690999991912011813004+65950+029200FM-12+025699999V0203201N002119999999N0000001N9-00781+99999101601ADDGF108991999999999999999999
0029028690999991912011820004+65950+029200FM-12+025699999V0203201N002119999999N0000001N9-01001+99999101241ADDGF100991999999999999999999
0029028690999991912011906004+65950+029200FM-12+025699999V0202701N004119999999N0000001N9-00891+99999100761ADDGF108991999999999999999999
0029028690999991912011913004+65950+029200FM-12+025699999V0202701N006219999999N0000001N9-00831+99999100321ADDGF108991999999999999999999
0029028690999991912011920004+65950+029200FM-12+025699999V0202701N009819999999N0000001N9-00831+99999099711ADDGF108991999999999999999999
0029028690999991912012006004+65950+029200FM-12+025699999V0202701N004119999999N0000001N9-00561+99999098601ADDGF108991999999999999999999
0029028690999991912012013004+65950+029200FM-12+025699999V0202701N004119999999N0000001N9-00721+99999098351ADDGF108991999999999999999999
0029028690999991912012020004+65950+029200FM-12+025699999V0202701N004119999999N0000001N9-00831+99999098201ADDGF108991999999999999999999
0035028690999991912012106004+65950+029200FM-12+025699999V0202701N004119999999N0000001N9-00891+99999098111ADDGF108991999999999999999999MW1721
0029028690999991912012113004+65950+029200FM-12+025699999V0202701N002119999999N0000001N9-01171+99999098181ADDGF108991999999999999999999
0035028690999991912012120004+65950+029200FM-12+025699999V0202701N002119999999N0000001N9-01001+99999098061ADDGF108991999999999999999999MW1721
0029028690999991912012206004+65950+029200FM-12+025699999V0202301N002119999999N0000001N9-00671+99999098031ADDGF108991999999999999999999
0029028690999991912012213004+65950+029200FM-12+025699999V0202301N006219999999N0000001N9-00561+99999097671ADDGF108991999999999999999999
0029028690999991912012220004+65950+029200FM-12+025699999V0202301N009819999999N0000001N9-00781+99999097121ADDGF108991999999999999999999
0029028690999991912012306004+65950+029200FM-12+025699999V0202301N009819999999N0000001N9-00611+99999096071ADDGF108991999999999999999999
0029028690999991912012313004+65950+029200FM-12+025699999V0202701N008219999999N0000001N9-00671+99999095991ADDGF108991999999999999999999
0029028690999991912012320004+65950+029200FM-12+025699999V0202701N006219999999N0000001N9-00941+99999095991ADDGF108991999999999999999999
0029028690999991912012406004+65950+029200FM-12+025699999V0203201N004119999999N0000001N9-01831+99999097101ADDGF100991999999999999999999
0029028690999991912012413004+65950+029200FM-12+025699999V0203201N002119999999N0000001N9-02441+99999097151ADDGF108991999999999999999999
0029028690999991912012420004+65950+029200FM-12+025699999V0209991C000019999999N0000001N9-02111+99999096841ADDGF100991999999999999999999
0029028690999991912012506004+65950+029200FM-12+025699999V0203601N006219999999N0000001N9-02221+99999096511ADDGF100991999999999999999999
0029028690999991912012513004+65950+029200FM-12+025699999V0203201N004119999999N0000001N9-02441+99999096911ADDGF100991999999999999999999
0029028690999991912012520004+65950+029200FM-12+025699999V0203201N002119999999N0000001N9-02781+99999096871ADDGF100991999999999999999999
0029028690999991912012606004+65950+029200FM-12+025699999V0203201N004119999999N0000001N9-02561+99999097431ADDGF100991999999999999999999
0029028690999991912012613004+65950+029200FM-12+025699999V0203201N002119999999N0000001N9-02501+99999098101ADDGF100991999999999999999999
0029028690999991912012620004+65950+029200FM-12+025699999V0203201N002119999999N0000001N9-02891+99999098231ADDGF100991999999999999999999
0029028690999991912012706004+65950+029200FM-12+025699999V0202301N008219999999N0000001N9-02441+99999097591ADDGF108991999999999999999999
0029028690999991912012713004+65950+029200FM-12+025699999V0202301N008219999999N0000001N9-01831+99999096701ADDGF108991999999999999999999
0029028690999991912012720004+65950+029200FM-12+025699999V0202301N009819999999N0000001N9-01001+99999095591ADDGF108991999999999999999999
0029028690999991912012806004+65950+029200FM-12+025699999V0203201N004119999999N0000001N9-01831+99999096481ADDGF108991999999999999999999
0029028690999991912012813004+65950+029200FM-12+025699999V0202701N002119999999N0000001N9-02501+99999096721ADDGF108991999999999999999999
0029028690999991912012820004+65950+029200FM-12+025699999V0202701N002119999999N0000001N9-02281+99999096721ADDGF108991999999999999999999
0029028690999991912012906004+65950+029200FM-12+025699999V0203201N002119999999N0000001N9-02831+99999097231ADDGF108991999999999999999999
0029028690999991912012913004+65950+029200FM-12+025699999V0203201N002119999999N0000001N9-02441+99999097541ADDGF100991999999999999999999
0029028690999991912012920004+65950+029200FM-12+025699999V0203201N002119999999N0000001N9-02671+99999097551ADDGF100991999999999999999999
0029028690999991912013006004+65950+029200FM-12+025699999V0203201N002119999999N0000001N9-02721+99999097601ADDGF108991999999999999999999
0029028690999991912013013004+65950+029200FM-12+025699999V0203201N002119999999N0000001N9-02831+99999097441ADDGF108991999999999999999999
0029028690999991912013020004+65950+029200FM-12+025699999V0209991C000019999999N0000001N9-02941+99999097471ADDGF108991999999999999999999
0029028690999991912013106004+65950+029200FM-12+025699999V0203201N002119999999N0000001N9-03671+99999097461ADDGF108991999999999999999999
0029028690999991912013113004+65950+029200FM-12+025699999V0203201N002119999999N0000001N9-03391+99999097361ADDGF108991999999999999999999
0029028690999991912013120004+65950+029200FM-12+025699999V0209991C000019999999N0000001N9-03561+99999097231ADDGF108991999999999999999999
0029028690999991912020106004+65950+029200FM-12+025699999V0209991C000019999999N0000001N9-03781+99999096961ADDGF108991999999999999999999
0029028690999991912020113004+65950+029200FM-12+025699999V0209991C000019999999N0000001N9-02831+99999096901ADDGF108991999999999999999999
0029028690999991912020120004+65950+029200FM-12+025699999V0203201N002119999999N0000001N9-02441+99999096601ADDGF108991999999999999999999
0029028690999991912020206004+65950+029200FM-12+025699999V0203201N002119999999N0000001N9-02781+99999096441ADDGF108991999999999999999999
0029028690999991912020213004+65950+029200FM-12+025699999V0203201N002119999999N0000001N9-02561+99999096321ADDGF100991999999999999999999
0029028690999991912020220004+65950+029200FM-12+025699999V0209991C000019999999N0000001N9-02781+99999096151ADDGF100991999999999999999999
0029028690999991912020306004+65950+029200FM-12+025699999V0209991C000019999999N0000001N9-02611+99999095791ADDGF100991999999999999999999
0029028690999991912020313004+65950+029200FM-12+025699999V0209991C000019999999N0000001N9-02501+99999095711ADDGF100991999999999999999999
0029028690999991912020320004+65950+029200FM-12+025699999V0209991C000019999999N0000001N9-02781+99999095761ADDGF100991999999999999999999
0029028690999991912020406004+65950+029200FM-12+025699999V0209991C000019999999N0000001N9-02941+99999095841ADDGF100991999999999999999999
0029028690999991912020413004+65950+029200FM-12+025699999V0203201N002119999999N0000001N9-02781+99999095921ADDGF100991999999999999999999
0029028690999991912020420004+65950+029200FM-12+025699999V0209991C000019999999N0000001N9-02941+99999096081ADDGF100991999999999999999999
0029028690999991912020506004+65950+029200FM-12+025699999V0203201N002119999999N0000001N9-03331+99999096361ADDGF100991999999999999999999
0029028690999991912020513004+65950+029200FM-12+025699999V0209991C000019999999N0000001N9-03281+99999096581ADDGF100991999999999999999999
0029028690999991912020520004+65950+029200FM-12+025699999V0209991C000019999999N0000001N9-02781+99999096751ADDGF100991999999999999999999
0029028690999991912020606004+65950+029200FM-12+025699999V0209991C000019999999N0000001N9-02891+99999096841ADDGF100991999999999999999999
0029028690999991912020613004+65950+029200FM-12+025699999V0203201N004119999999N0000001N9-02281+99999097241ADDGF100991999999999999999999
0029028690999991912020620004+65950+029200FM-12+025699999V0209991C000019999999N0000001N9-02941+99999097431ADDGF100991999999999999999999
0029028690999991912020706004+65950+029200FM-12+025699999V0209991C000019999999N0000001N9-02441+99999097761ADDGF106991999999999999999999
0035028690999991912020713004+65950+029200FM-12+025699999V0202701N002119999999N0000001N9-01221+99999097761ADDGF108991999999999999999999MW1721
0029028690999991912020720004+65950+029200FM-12+025699999V0209991C000019999999N0000001N9-00891+99999097941ADDGF108991999999999999999999
0029028690999991912020806004+65950+029200FM-12+025699999V0201801N004119999999N0000001N9-01171+99999098221ADDGF106991999999999999999999
0029028690999991912020813004+65950+029200FM-12+025699999V0201801N002119999999N0000001N9-01501+99999098321ADDGF108991999999999999999999
0035028690999991912020820004+65950+029200FM-12+025699999V0209991C000019999999N0000001N9-01391+99999098041ADDGF108991999999999999999999MW1721
0029028690999991912020906004+65950+029200FM-12+025699999V0209991C000019999999N0000001N9-00891+99999097671ADDGF108991999999999999999999
0029028690999991912020913004+65950+029200FM-12+025699999V0209991C000019999999N0000001N9-00611+99999097861ADDGF108991999999999999999999
0029028690999991912020920004+65950+029200FM-12+025699999V0209991C000019999999N0000001N9-00671+99999098081ADDGF108991999999999999999999
0029028690999991912021006004+65950+029200FM-12+025699999V0209991C000019999999N0000001N9-00891+99999097991ADDGF108991999999999999999999
0029028690999991912021013004+65950+029200FM-12+025699999V0209991C000019999999N0000001N9-00781+99999097901ADDGF108991999999999999999999
0029028690999991912021020004+65950+029200FM-12+025699999V0209991C000019999999N0000001N9-00781+99999098021ADDGF108991999999999999999999
0029028690999991912021106004+65950+029200FM-12+025699999V0200501N002119999999N0000001N9-00891+99999098381ADDGF108991999999999999999999
0029028690999991912021113004+65950+029200FM-12+025699999V0200501N002119999999N0000001N9-01331+99999098551ADDGF102991999999999999999999
0029028690999991912021120004+65950+029200FM-12+025699999V0209991C000019999999N0000001N9-01781+99999098641ADDGF100991999999999999999999
0029028690999991912021206004+65950+029200FM-12+025699999V0209991C000019999999N0000001N9-02281+99999099031ADDGF100991999999999999999999
0029028690999991912021213004+65950+029200FM-12+025699999V0209991C000019999999N0000001N9-02001+99999099111ADDGF100991999999999999999999
0029028690999991912021220004+65950+029200FM-12+025699999V0209991C000019999999N0000001N9-02281+99999099111ADDGF100991999999999999999999
0029028690999991912021306004+65950+029200FM-12+025699999V0209991C000019999999N0000001N9-02781+99999098981ADDGF100991999999999999999999
0029028690999991912021313004+65950+029200FM-12+025699999V0209991C000019999999N0000001N9-02061+99999098741ADDGF100991999999999999999999
0029028690999991912021320004+65950+029200FM-12+025699999V0203201N002119999999N0000001N9-01781+99999098201ADDGF108991999999999999999999
0029028690999991912021406004+65950+029200FM-12+025699999V0202301N004119999999N0000001N9-01281+99999096941ADDGF108991999999999999999999
0029028690999991912021413004+65950+029200FM-12+025699999V0202301N006219999999N0000001N9-01171+99999096901ADDGF102991999999999999999999
0035028690999991912021420004+65950+029200FM-12+025699999V0203201N009819999999N0000001N9-00941+99999097271ADDGF100991999999999999999999MW1001
0029028690999991912021506004+65950+029200FM-12+025699999V0203601N002119999999N0000001N9-02781+99999097841ADDGF100991999999999999999999
0029028690999991912021513004+65950+029200FM-12+025699999V0203601N002119999999N0000001N9-01221+99999097791ADDGF102991999999999999999999
0029028690999991912021520004+65950+029200FM-12+025699999V0209991C000019999999N0000001N9-01891+99999097921ADDGF100991999999999999999999
0029028690999991912021606004+65950+029200FM-12+025699999V0209991C000019999999N0000001N9-01831+99999097301ADDGF106991999999999999999999
0029028690999991912021613004+65950+029200FM-12+025699999V0201801N002119999999N0000001N9-01221+99999097391ADDGF106991999999999999999999
0029028690999991912021620004+65950+029200FM-12+025699999V0209991C000019999999N0000001N9-01831+99999097641ADDGF100991999999999999999999
0035028690999991912021706004+65950+029200FM-12+025699999V0201801N004119999999N0000001N9-01781+99999097301ADDGF108991999999999999999999MW1721
0035028690999991912021713004+65950+029200FM-12+025699999V0209991C000019999999N0000001N9-01721+99999097001ADDGF108991999999999999999999MW1721
0035028690999991912021720004+65950+029200FM-12+025699999V0209991C000019999999N0000001N9-02281+99999097121ADDGF100991999999999999999999MW1001
0029028690999991912021806004+65950+029200FM-12+025699999V0209991C000019999999N0000001N9-01941+99999096941ADDGF108991999999999999999999
0029028690999991912021813004+65950+029200FM-12+025699999V0209991C000019999999N0000001N9-01671+99999096791ADDGF100991999999999999999999
0029028690999991912021820004+65950+029200FM-12+025699999V0209991C000019999999N0000001N9-02221+99999097231ADDGF100991999999999999999999
0029028690999991912021906004+65950+029200FM-12+025699999V0203601N002119999999N0000001N9-02781+99999097791ADDGF100991999999999999999999
0029028690999991912021913004+65950+029200FM-12+025699999V0209991C000019999999N0000001N9-02281+99999098271ADDGF100991999999999999999999
0029028690999991912021920004+65950+029200FM-12+025699999V0209991C000019999999N0000001N9-02781+99999098521ADDGF100991999999999999999999
0029028690999991912022006004+65950+029200FM-12+025699999V0203201N002119999999N0000001N9-03111+99999098871ADDGF100991999999999999999999
0029028690999991912022013004+65950+029200FM-12+025699999V0203201N002119999999N0000001N9-02221+99999098871ADDGF100991999999999999999999
0029028690999991912022020004+65950+029200FM-12+025699999V0209991C000019999999N0000001N9-03171+99999098741ADDGF100991999999999999999999
0029028690999991912022106004+65950+029200FM-12+025699999V0203201N002119999999N0000001N9-02941+99999098501ADDGF100991999999999999999999
0029028690999991912022113004+65950+029200FM-12+025699999V0203201N004119999999N0000001N9-02171+99999098541ADDGF100991999999999999999999
0029028690999991912022120004+65950+029200FM-12+025699999V0209991C000019999999N0000001N9-02721+99999098581ADDGF100991999999999999999999
0029028690999991912022206004+65950+029200FM-12+025699999V0202701N006219999999N0000001N9-02001+99999098271ADDGF108991999999999999999999
0029028690999991912022213004+65950+029200FM-12+025699999V0202701N006219999999N0000001N9-01671+99999098261ADDGF108991999999999999999999
0029028690999991912022220004+65950+029200FM-12+025699999V0202701N006219999999N0000001N9-01501+99999098481ADDGF105991999999999999999999
0029028690999991912022306004+65950+029200FM-12+025699999V0202901N004119999999N0000001N9-02111+99999099241ADDGF100991999999999999999999
0029028690999991912022313004+65950+029200FM-12+025699999V0203201N002119999999N0000001N9-01781+99999099391ADDGF100991999999999999999999
0029028690999991912022320004+65950+029200FM-12+025699999V0209991C000019999999N0000001N9-02721+99999099281ADDGF100991999999999999999999
0029028690999991912022406004+65950+029200FM-12+025699999V0209991C000019999999N0000001N9-03781+99999099021ADDGF100991999999999999999999
0029028690999991912022413004+65950+029200FM-12+025699999V0209991C000019999999N0000001N9-02441+99999098841ADDGF100991999999999999999999
0029028690999991912022420004+65950+029200FM-12+025699999V0209991C000019999999N0000001N9-02891+99999098441ADDGF100991999999999999999999
0029028690999991912022506004+65950+029200FM-12+025699999V0201601N008219999999N0000001N9-01831+99999097791ADDGF108991999999999999999999
0035028690999991912022513004+65950+029200FM-12+025699999V0201601N008219999999N0000001N9-01561+99999097511ADDGF108991999999999999999999MW1721
0029028690999991912022520004+65950+029200FM-12+025699999V0201801N004119999999N0000001N9-01611+99999097421ADDGF108991999999999999999999
0029028690999991912022606004+65950+029200FM-12+025699999V0209991C000019999999N0000001N9-01671+99999097501ADDGF108991999999999999999999
0035028690999991912022613004+65950+029200FM-12+025699999V0201801N002119999999N0000001N9-01561+99999097561ADDGF108991999999999999999999MW1701
0029028690999991912022620004+65950+029200FM-12+025699999V0209991C000019999999N0000001N9-01441+99999097391ADDGF108991999999999999999999
0029028690999991912022706004+65950+029200FM-12+025699999V0201401N002119999999N0000001N9-01561+99999097111ADDGF108991999999999999999999
0035028690999991912022713004+65950+029200FM-12+025699999V0200901N006219999999N0000001N9-01281+99999097151ADDGF108991999999999999999999MW1701
0029028690999991912022720004+65950+029200FM-12+025699999V0200901N002119999999N0000001N9-01281+99999097221ADDGF108991999999999999999999
0029028690999991912022806004+65950+029200FM-12+025699999V0200901N004119999999N0000001N9-01171+99999097231ADDGF108991999999999999999999
0035028690999991912022813004+65950+029200FM-12+025699999V0201101N004119999999N0000001N9-00941+99999097231ADDGF108991999999999999999999MW1701
0029028690999991912022820004+65950+029200FM-12+025699999V0209991C000019999999N0000001N9-00941+99999097031ADDGF108991999999999999999999
0029028690999991912022906004+65950+029200FM-12+025699999V0209991C000019999999N0000001N9-00831+99999096921ADDGF104991999999999999999999
0029028690999991912022913004+65950+029200FM-12+025699999V0209991C000019999999N0000001N9-00501+99999096941ADDGF102991999999999999999999
0029028690999991912022920004+65950+029200FM-12+025699999V0202701N004119999999N0000001N9-00561+99999096991ADDGF108991999999999999999999
0035028690999991912030106004+65950+029200FM-12+025699999V0200901N004119999999N0000001N9-00501+99999096391ADDGF108991999999999999999999MW1721
0035028690999991912030113004+65950+029200FM-12+025699999V0200901N006219999999N0000001N9-00501+99999096441ADDGF108991999999999999999999MW1721
0029028690999991912030120004+65950+029200FM-12+025699999V0200901N008219999999N0000001N9-00941+99999096941ADDGF108991999999999999999999
0035028690999991912030206004+65950+029200FM-12+025699999V0200901N008219999999N0000001N9-01781+99999097221ADDGF108991999999999999999999MW1721
0035028690999991912030213004+65950+029200FM-12+025699999V0201401N008219999999N0000001N9-01441+99999097191ADDGF108991999999999999999999MW1721
0035028690999991912030220004+65950+029200FM-12+025699999V0201401N002119999999N0000001N9-01171+99999097081ADDGF108991999999999999999999MW1721
0029028690999991912030306004+65950+029200FM-12+025699999V0209991C000019999999N0000001N9-00281+99999096661ADDGF108991999999999999999999
0035028690999991912030313004+65950+029200FM-12+025699999V0209991C000019999999N0000001N9+00001+99999096591ADDGF108991999999999999999999MW1721
0029028690999991912030320004+65950+029200FM-12+025699999V0209991C000019999999N0000001N9+00061+99999096501ADDGF108991999999999999999999
0029028690999991912030406004+65950+029200FM-12+025699999V0202301N002119999999N0000001N9-00061+99999096561ADDGF108991999999999999999999
0035028690999991912030413004+65950+029200FM-12+025699999V0209991C000019999999N0000001N9+00001+99999096351ADDGF108991999999999999999999MW1721
0029028690999991912030420004+65950+029200FM-12+025699999V0202901N004119999999N0000001N9-00671+99999096441ADDGF108991999999999999999999
0035028690999991912030506004+65950+029200FM-12+025699999V0200901N009819999999N0000001N9-01061+99999096881ADDGF108991999999999999999999MW1721
0035028690999991912030513004+65950+029200FM-12+025699999V0200901N009819999999N0000001N9-01501+99999097541ADDGF108991999999999999999999MW1721
0029028690999991912030520004+65950+029200FM-12+025699999V0200901N015919999999N0000001N9-01891+99999097881ADDGF108991999999999999999999
0035028690999991912030606004+65950+029200FM-12+025699999V0200901N020119999999N0000001N9-02331+99999098471ADDGF106991999999999999999999MW1721
0035028690999991912030613004+65950+029200FM-12+025699999V0200901N020119999999N0000001N9-01781+99999098441ADDGF108991999999999999999999MW1721
0035028690999991912030620004+65950+029200FM-12+025699999V0200901N015919999999N0000001N9-01941+99999098461ADDGF108991999999999999999999MW1721
0029028690999991912030706004+65950+029200FM-12+025699999V0200901N009819999999N0000001N9-02281+99999098111ADDGF108991999999999999999999
0029028690999991912030713004+65950+029200FM-12+025699999V0200901N009819999999N0000001N9-01611+99999097921ADDGF108991999999999999999999
0029028690999991912030720004+65950+029200FM-12+025699999V0201101N004119999999N0000001N9-01561+99999097911ADDGF108991999999999999999999
0029028690999991912030806004+65950+029200FM-12+025699999V0201101N004119999999N0000001N9-01441+99999097541ADDGF106991999999999999999999
0029028690999991912030813004+65950+029200FM-12+025699999V0209991C000019999999N0000001N9-01061+99999097521ADDGF102991999999999999999999
0029028690999991912030820004+65950+029200FM-12+025699999V0209991C000019999999N0000001N9-01061+99999097591ADDGF108991999999999999999999
0029028690999991912030906004+65950+029200FM-12+025699999V0209991C000019999999N0000001N9-01501+99999098121ADDGF108991999999999999999999
0029028690999991912030913004+65950+029200FM-12+025699999V0203201N002119999999N0000001N9-01111+99999098261ADDGF105991999999999999999999
0029028690999991912030920004+65950+029200FM-12+025699999V0209991C000019999999N0000001N9-01171+99999098741ADDGF100991999999999999999999
0029028690999991912031006004+65950+029200FM-12+025699999V0209991C000019999999N0000001N9-02331+99999099601ADDGF100991999999999999999999
0029028690999991912031013004+65950+029200FM-12+025699999V0203201N002119999999N0000001N9-01331+99999099871ADDGF100991999999999999999999
0029028690999991912031020004+65950+029200FM-12+025699999V0209991C000019999999N0000001N9-02281+99999100061ADDGF100991999999999999999999
0029028690999991912031106004+65950+029200FM-12+025699999V0209991C000019999999N0000001N9-02391+99999100271ADDGF100991999999999999999999
0029028690999991912031113004+65950+029200FM-12+025699999V0200901N002119999999N0000001N9-01281+99999100361ADDGF100991999999999999999999
0029028690999991912031120004+65950+029200FM-12+025699999V0200501N002119999999N0000001N9-01441+99999100281ADDGF100991999999999999999999
0029028690999991912031206004+65950+029200FM-12+025699999V0200901N002119999999N0000001N9-01441+99999100101ADDGF108991999999999999999999
0029028690999991912031213004+65950+029200FM-12+025699999V0200901N002119999999N0000001N9-01171+99999099871ADDGF108991999999999999999999
0029028690999991912031220004+65950+029200FM-12+025699999V0209991C000019999999N0000001N9-00831+99999099711ADDGF106991999999999999999999
0029028690999991912031306004+65950+029200FM-12+025699999V0209991C000019999999N0000001N9-00831+99999099441ADDGF108991999999999999999999
0029028690999991912031313004+65950+029200FM-12+025699999V0209991C000019999999N0000001N9-00671+99999099261ADDGF108991999999999999999999
0035028690999991912031320004+65950+029200FM-12+025699999V0209991C000019999999N0000001N9-01831+99999099161ADDGF100991999999999999999999MW1001
0029028690999991912031406004+65950+029200FM-12+025699999V0209991C000019999999N0000001N9-02561+99999099121ADDGF100991999999999999999999
0029028690999991912031413004+65950+029200FM-12+025699999V0202301N004119999999N0000001N9-01171+99999099111ADDGF108991999999999999999999
0029028690999991912031420004+65950+029200FM-12+025699999V0202301N008219999999N0000001N9-01171+99999099281ADDGF108991999999999999999999
0029028690999991912031506004+65950+029200FM-12+025699999V0202301N004119999999N0000001N9-01111+99999099301ADDGF108991999999999999999999
0029028690999991912031513004+65950+029200FM-12+025699999V0202001N004119999999N0000001N9-00671+99999099261ADDGF108991999999999999999999
0029028690999991912031520004+65950+029200FM-12+025699999V0202001N006219999999N0000001N9-00611+99999099121ADDGF108991999999999999999999
0029028690999991912031606004+65950+029200FM-12+025699999V0201401N006219999999N0000001N9-00611+99999099081ADDGF108991999999999999999999
0029028690999991912031613004+65950+029200FM-12+025699999V0202501N008219999999N0000001N9-00721+99999099161ADDGF108991999999999999999999
0029028690999991912031620004+65950+029200FM-12+025699999V0202501N008219999999N0000001N9-00501+99999099111ADDGF108991999999999999999999
0029028690999991912031706004+65950+029200FM-12+025699999V0202301N011819999999N0000001N9-00331+99999099021ADDGF108991999999999999999999
0029028690999991912031713004+65950+029200FM-12+025699999V0202301N008219999999N0000001N9-00221+99999099191ADDGF108991999999999999999999
0029028690999991912031720004+65950+029200FM-12+025699999V0209991C000019999999N0000001N9-00441+99999099101ADDGF102991999999999999999999
0029028690999991912031806004+65950+029200FM-12+025699999V0202301N006219999999N0000001N9-00561+99999098821ADDGF108991999999999999999999
0029028690999991912031813004+65950+029200FM-12+025699999V0202301N004119999999N0000001N9-00281+99999098871ADDGF108991999999999999999999
0035028690999991912031820004+65950+029200FM-12+025699999V0202301N002119999999N0000001N9-00441+99999098791ADDGF108991999999999999999999MW1701
0029028690999991912031906004+65950+029200FM-12+025699999V0209991C000019999999N0000001N9-00331+99999098621ADDGF106991999999999999999999
0029028690999991912031913004+65950+029200FM-12+025699999V0209991C000019999999N0000001N9+00001+99999098361ADDGF100991999999999999999999
0029028690999991912031920004+65950+029200FM-12+025699999V0209991C000019999999N0000001N9-00891+99999098121ADDGF108991999999999999999999
0029028690999991912032006004+65950+029200FM-12+025699999V0209991C000019999999N0000001N9-01001+99999098001ADDGF103991999999999999999999
0029028690999991912032013004+65950+029200FM-12+025699999V0209991C000019999999N0000001N9-00331+99999098241ADDGF108991999999999999999999
0029028690999991912032020004+65950+029200FM-12+025699999V0201601N002119999999N0000001N9-00281+99999098341ADDGF108991999999999999999999
0035028690999991912032106004+65950+029200FM-12+025699999V0201101N006219999999N0000001N9-00281+99999098141ADDGF108991999999999999999999MW1701
0035028690999991912032113004+65950+029200FM-12+025699999V0201101N004119999999N0000001N9-00111+99999098081ADDGF108991999999999999999999MW1721
0035028690999991912032120004+65950+029200FM-12+025699999V0201801N006219999999N0000001N9+00001+99999098071ADDGF108991999999999999999999MW1721
0029028690999991912032206004+65950+029200FM-12+025699999V0201401N006219999999N0000001N9+00001+99999097921ADDGF108991999999999999999999
0035028690999991912032213004+65950+029200FM-12+025699999V0201101N006219999999N0000001N9+00061+99999097391ADDGF108991999999999999999999MW1721
0035028690999991912032220004+65950+029200FM-12+025699999V0201101N006219999999N0000001N9-00221+99999097101ADDGF108991999999999999999999MW1721
0029028690999991912032306004+65950+029200FM-12+025699999V0202001N004119999999N0000001N9-00171+99999097591ADDGF108991999999999999999999
0029028690999991912032313004+65950+029200FM-12+025699999V0201801N004119999999N0000001N9+00001+99999097741ADDGF108991999999999999999999
0029028690999991912032320004+65950+029200FM-12+025699999V0209991C000019999999N0000001N9-00061+99999097751ADDGF108991999999999999999999
0035028690999991912032406004+65950+029200FM-12+025699999V0209991C000019999999N0000001N9+00001+99999097561ADDGF108991999999999999999999MW1721
0035028690999991912032413004+65950+029200FM-12+025699999V0201601N009819999999N0000001N9+00061+99999097541ADDGF108991999999999999999999MW1721
0029028690999991912032420004+65950+029200FM-12+025699999V0209991C000019999999N0000001N9+00001+99999097631ADDGF108991999999999999999999
0035028690999991912032506004+65950+029200FM-12+025699999V0209991C000019999999N0000001N9+00001+99999097661ADDGF108991999999999999999999MW1721
0035028690999991912032513004+65950+029200FM-12+025699999V0201601N001019999999N0000001N9+00111+99999097831ADDGF108991999999999999999999MW1721
0035028690999991912032520004+65950+029200FM-12+025699999V0209991C000019999999N0000001N9+00001+99999097871ADDGF108991999999999999999999MW1721
0029028690999991912032606004+65950+029200FM-12+025699999V0203201N002119999999N0000001N9-00171+99999098121ADDGF108991999999999999999999
0035028690999991912032613004+65950+029200FM-12+025699999V0209991C000019999999N0000001N9+00001+99999098391ADDGF108991999999999999999999MW1721
0029028690999991912032620004+65950+029200FM-12+025699999V0209991C000019999999N0000001N9-00281+99999098151ADDGF108991999999999999999999
0029028690999991912032706004+65950+029200FM-12+025699999V0201101N004119999999N0000001N9-00281+99999097921ADDGF108991999999999999999999
0029028690999991912032713004+65950+029200FM-12+025699999V0201101N004119999999N0000001N9-00281+99999097641ADDGF108991999999999999999999
0029028690999991912032720004+65950+029200FM-12+025699999V0201101N008219999999N0000001N9-00441+99999097121ADDGF108991999999999999999999
0029028690999991912032806004+65950+029200FM-12+025699999V0201101N006219999999N0000001N9-00941+99999096791ADDGF108991999999999999999999
0029028690999991912032813004+65950+029200FM-12+025699999V0200901N011819999999N0000001N9-00611+99999096201ADDGF108991999999999999999999
0035028690999991912032820004+65950+029200FM-12+025699999V0200901N020119999999N0000001N9-00721+99999095761ADDGF108991999999999999999999MW1721
0035028690999991912032906004+65950+029200FM-12+025699999V0200501N009819999999N0000001N9-00671+99999104962ADDGF108991999999999999999999MW1721
0035028690999991912032913004+65950+029200FM-12+025699999V0200501N009819999999N0000001N9-00391+99999104801ADDGF108991999999999999999999MW1721
0035028690999991912032920004+65950+029200FM-12+025699999V0203601N002119999999N0000001N9-00611+99999104861ADDGF108991999999999999999999MW1721
0035028690999991912033006004+65950+029200FM-12+025699999V0203601N004119999999N0000001N9-00891+99999104961ADDGF108991999999999999999999MW1721
0035028690999991912033013004+65950+029200FM-12+025699999V0200201N008219999999N0000001N9-00831+99999095442ADDGF108991999999999999999999MW1721
0035028690999991912033020004+65950+029200FM-12+025699999V0200501N008219999999N0000001N9-00941+99999095861ADDGF108991999999999999999999MW1721
0029028690999991912033106004+65950+029200FM-12+025699999V0203201N002119999999N0000001N9-01561+99999096521ADDGF100991999999999999999999
0029028690999991912033113004+65950+029200FM-12+025699999V0203601N004119999999N0000001N9-01171+99999096961ADDGF106991999999999999999999
0029028690999991912033120004+65950+029200FM-12+025699999V0209991C000019999999N0000001N9-01941+99999097261ADDGF100991999999999999999999
0029028690999991912040106004+65950+029200FM-12+025699999V0209991C000019999999N0000001N9-02171+99999097561ADDGF100991999999999999999999
0029028690999991912040113004+65950+029200FM-12+025699999V0209991C000019999999N0000001N9-01171+99999097711ADDGF105991999999999999999999
0029028690999991912040120004+65950+029200FM-12+025699999V0209991C000019999999N0000001N9-02441+99999097871ADDGF100991999999999999999999
0029028690999991912040206004+65950+029200FM-12+025699999V0209991C000019999999N0000001N9-03061+99999098141ADDGF100991999999999999999999
0029028690999991912040213004+65950+029200FM-12+025699999V0209991C000019999999N0000001N9-00671+99999098181ADDGF100991999999999999999999
0029028690999991912040220004+65950+029200FM-12+025699999V0209991C000019999999N0000001N9-02281+99999098301ADDGF100991999999999999999999
0029028690999991912040306004+65950+029200FM-12+025699999V0202301N006219999999N0000001N9-01171+99999098031ADDGF100991999999999999999999
0029028690999991912040313004+65950+029200FM-12+025699999V0202301N009819999999N0000001N9-00281+99999097951ADDGF102991999999999999999999
0029028690999991912040320004+65950+029200FM-12+025699999V0202301N011819999999N0000001N9-00281+99999097781ADDGF100991999999999999999999
0029028690999991912040406004+65950+029200FM-12+025699999V0202301N009819999999N0000001N9-00391+99999097281ADDGF106991999999999999999999
0029028690999991912040413004+65950+029200FM-12+025699999V0202301N020119999999N0000001N9+00221+99999096671ADDGF108991999999999999999999
0029028690999991912040420004+65950+029200FM-12+025699999V0202301N011819999999N0000001N9+00111+99999096081ADDGF108991999999999999999999
0035028690999991912040506004+65950+029200FM-12+025699999V0201801N009819999999N0000001N9-00171+99999104222ADDGF108991999999999999999999MW1721
0029028690999991912040513004+65950+029200FM-12+025699999V0201601N008219999999N0000001N9+00061+99999103711ADDGF108991999999999999999999
0029028690999991912040520004+65950+029200FM-12+025699999V0202301N006219999999N0000001N9-00501+99999103671ADDGF108991999999999999999999
0035028690999991912040606004+65950+029200FM-12+025699999V0200501N009819999999N0000001N9-00891+99999103761ADDGF108991999999999999999999MW1721
0035028690999991912040613004+65950+029200FM-12+025699999V0200501N015919999999N0000001N9-00941+99999104481ADDGF108991999999999999999999MW1721
0035028690999991912040620004+65950+029200FM-12+025699999V0200501N008219999999N0000001N9-01281+99999095082ADDGF108991999999999999999999MW1721
0029028690999991912040706004+65950+029200FM-12+025699999V0203201N002119999999N0000001N9-00781+99999095561ADDGF102991999999999999999999
0029028690999991912040713004+65950+029200FM-12+025699999V0203201N002119999999N0000001N9-00941+99999095741ADDGF106991999999999999999999
0029028690999991912040720004+65950+029200FM-12+025699999V0203201N002119999999N0000001N9-01061+99999095801ADDGF108991999999999999999999
0029028690999991912040806004+65950+029200FM-12+025699999V0203201N008219999999N0000001N9-01281+99999095791ADDGF103991999999999999999999
0029028690999991912040813004+65950+029200FM-12+025699999V0200201N015919999999N0000001N9-00781+99999096221ADDGF108991999999999999999999
0029028690999991912040820004+65950+029200FM-12+025699999V0200501N009819999999N0000001N9-01001+99999096631ADDGF108991999999999999999999
0029028690999991912040906004+65950+029200FM-12+025699999V0209991C000019999999N0000001N9-01501+99999096901ADDGF102991999999999999999999
0029028690999991912040913004+65950+029200FM-12+025699999V0200901N008219999999N0000001N9-00891+99999096841ADDGF100991999999999999999999
0029028690999991912040920004+65950+029200FM-12+025699999V0200901N002119999999N0000001N9-01441+99999096921ADDGF100991999999999999999999
0029028690999991912041006004+65950+029200FM-12+025699999V0209991C000019999999N0000001N9-01611+99999097121ADDGF100991999999999999999999
0029028690999991912041013004+65950+029200FM-12+025699999V0200701N008219999999N0000001N9-00831+99999097281ADDGF100991999999999999999999
0029028690999991912041020004+65950+029200FM-12+025699999V0200701N002119999999N0000001N9-01561+99999097461ADDGF100991999999999999999999
0029028690999991912041106004+65950+029200FM-12+025699999V0200501N008219999999N0000001N9-01721+99999097391ADDGF104991999999999999999999
0029028690999991912041113004+65950+029200FM-12+025699999V0200701N006219999999N0000001N9-01111+99999097231ADDGF108991999999999999999999
0029028690999991912041120004+65950+029200FM-12+025699999V0200501N004119999999N0000001N9-01221+99999097541ADDGF108991999999999999999999
0029028690999991912041206004+65950+029200FM-12+025699999V0200501N004119999999N0000001N9-01391+99999097821ADDGF106991999999999999999999
0029028690999991912041213004+65950+029200FM-12+025699999V0200501N006219999999N0000001N9-00941+99999097701ADDGF102991999999999999999999
0029028690999991912041220004+65950+029200FM-12+025699999V0200501N006219999999N0000001N9-00891+99999097641ADDGF108991999999999999999999
0029028690999991912041306004+65950+029200FM-12+025699999V0200501N004119999999N0000001N9-00721+99999097671ADDGF108991999999999999999999
0035028690999991912041313004+65950+029200FM-12+025699999V0200201N006219999999N0000001N9-00441+99999097711ADDGF108991999999999999999999MW1701
0029028690999991912041320004+65950+029200FM-12+025699999V0200501N004119999999N0000001N9-00441+99999098061ADDGF106991999999999999999999
0029028690999991912041406004+65950+029200FM-12+025699999V0203601N002119999999N0000001N9-00611+99999098421ADDGF100991999999999999999999
0029028690999991912041413004+65950+029200FM-12+025699999V0209991C000019999999N0000001N9+00001+99999098551ADDGF100991999999999999999999
0029028690999991912041420004+65950+029200FM-12+025699999V0209991C000019999999N0000001N9-00671+99999098601ADDGF100991999999999999999999
0029028690999991912041506004+65950+029200FM-12+025699999V0209991C000019999999N0000001N9-00781+99999098441ADDGF100991999999999999999999
0029028690999991912041513004+65950+029200FM-12+025699999V0202301N006219999999N0000001N9+00281+99999098121ADDGF100991999999999999999999
0029028690999991912041520004+65950+029200FM-12+025699999V0202501N006219999999N0000001N9+00061+99999097641ADDGF108991999999999999999999
0029028690999991912041606004+65950+029200FM-12+025699999V0202701N008219999999N0000001N9-00221+99999098071ADDGF100991999999999999999999
0029028690999991912041613004+65950+029200FM-12+025699999V0202701N009819999999N0000001N9+00171+99999098271ADDGF100991999999999999999999
0029028690999991912041620004+65950+029200FM-12+025699999V0202301N006219999999N0000001N9+00001+99999097981ADDGF108991999999999999999999
0035028690999991912041706004+65950+029200FM-12+025699999V0202301N011819999999N0000001N9+00561+99999097401ADDGF108991999999999999999999MW1621
0029028690999991912041713004+65950+029200FM-12+025699999V0202501N020119999999N0000001N9+00781+99999097591ADDGF102991999999999999999999
0029028690999991912041720004+65950+029200FM-12+025699999V0202501N006219999999N0000001N9+00441+99999098221ADDGF100991999999999999999999
0029028690999991912041806004+65950+029200FM-12+025699999V0202501N009819999999N0000001N9+00331+99999098521ADDGF105991999999999999999999
0029028690999991912041813004+65950+029200FM-12+025699999V0203401N004119999999N0000001N9+00561+99999099061ADDGF108991999999999999999999
0029028690999991912041820004+65950+029200FM-12+025699999V0209991C000019999999N0000001N9+00001+99999099681ADDGF100991999999999999999999
0029028690999991912041906004+65950+029200FM-12+025699999V0209991C000019999999N0000001N9-00561+99999099911ADDGF100991999999999999999999
0029028690999991912041913004+65950+029200FM-12+025699999V0202301N004119999999N0000001N9+00671+99999099791ADDGF100991999999999999999999
0029028690999991912041920004+65950+029200FM-12+025699999V0209991C000019999999N0000001N9+00281+99999099901ADDGF100991999999999999999999
0029028690999991912042006004+65950+029200FM-12+025699999V0209991C000019999999N0000001N9-00281+99999100431ADDGF100991999999999999999999
0035028690999991912042013004+65950+029200FM-12+025699999V0209991C000019999999N0000001N9+00611+99999100721ADDGF100991999999999999999999MW1051
0029028690999991912042020004+65950+029200FM-12+025699999V0209991C000019999999N0000001N9+00171+99999100911ADDGF100991999999999999999999
0029028690999991912042106004+65950+029200FM-12+025699999V0201401N002119999999N0000001N9-00281+99999101101ADDGF100991999999999999999999
0029028690999991912042113004+65950+029200FM-12+025699999V0209991C000019999999N0000001N9+00611+99999100881ADDGF100991999999999999999999
0029028690999991912042120004+65950+029200FM-12+025699999V0209991C000019999999N0000001N9+00001+99999100601ADDGF100991999999999999999999
0029028690999991912042206004+65950+029200FM-12+025699999V0209991C000019999999N0000001N9-00221+99999100311ADDGF100991999999999999999999
0029028690999991912042213004+65950+029200FM-12+025699999V0209991C000019999999N0000001N9+01001+99999100021ADDGF100991999999999999999999
0029028690999991912042220004+65950+029200FM-12+025699999V0209991C000019999999N0000001N9+00501+99999099721ADDGF108991999999999999999999
0029028690999991912042306004+65950+029200FM-12+025699999V0203601N004119999999N0000001N9+00331+99999099671ADDGF100991999999999999999999
0029028690999991912042313004+65950+029200FM-12+025699999V0203401N006219999999N0000001N9+00501+99999099671ADDGF108991999999999999999999
0029028690999991912042320004+65950+029200FM-12+025699999V0203401N004119999999N0000001N9+00281+99999099441ADDGF108991999999999999999999
0029028690999991912042406004+65950+029200FM-12+025699999V0202901N009819999999N0000001N9+00221+99999098861ADDGF106991999999999999999999
0029028690999991912042413004+65950+029200FM-12+025699999V0203401N011819999999N0000001N9+00281+99999098761ADDGF106991999999999999999999
0029028690999991912042420004+65950+029200FM-12+025699999V0200201N008219999999N0000001N9-00061+99999098841ADDGF106991999999999999999999
0029028690999991912042506004+65950+029200FM-12+025699999V0209991C000019999999N0000001N9-00111+99999098781ADDGF108991999999999999999999
0029028690999991912042513004+65950+029200FM-12+025699999V0202301N004119999999N0000001N9+00331+99999098441ADDGF106991999999999999999999
0029028690999991912042520004+65950+029200FM-12+025699999V0202301N006219999999N0000001N9+00281+99999097741ADDGF108991999999999999999999
0029028690999991912042606004+65950+029200FM-12+025699999V0203201N004119999999N0000001N9+00111+99999096951ADDGF102991999999999999999999
0029028690999991912042613004+65950+029200FM-12+025699999V0203201N006219999999N0000001N9+00171+99999096871ADDGF108991999999999999999999
0035028690999991912042620004+65950+029200FM-12+025699999V0203201N002119999999N0000001N9-00061+99999096841ADDGF108991999999999999999999MW1721
0029028690999991912042706004+65950+029200FM-12+025699999V0200201N006219999999N0000001N9+00061+99999096741ADDGF108991999999999999999999
0029028690999991912042713004+65950+029200FM-12+025699999V0200701N006219999999N0000001N9+00171+99999097001ADDGF108991999999999999999999
0029028690999991912042720004+65950+029200FM-12+025699999V0209991C000019999999N0000001N9-00061+99999097121ADDGF108991999999999999999999
0029028690999991912042806004+65950+029200FM-12+025699999V0200501N006219999999N0000001N9+00001+99999097361ADDGF106991999999999999999999
0035028690999991912042813004+65950+029200FM-12+025699999V0200501N009819999999N0000001N9-00061+99999097561ADDGF108991999999999999999999MW1721
0029028690999991912042820004+65950+029200FM-12+025699999V0200501N009819999999N0000001N9-00331+99999097991ADDGF108991999999999999999999
0029028690999991912042906004+65950+029200FM-12+025699999V0203201N009819999999N0000001N9-00561+99999098381ADDGF108991999999999999999999
0029028690999991912042913004+65950+029200FM-12+025699999V0203601N004119999999N0000001N9-00281+99999098401ADDGF100991999999999999999999
0029028690999991912042920004+65950+029200FM-12+025699999V0209991C000019999999N0000001N9-00671+99999098471ADDGF100991999999999999999999
0029028690999991912043006004+65950+029200FM-12+025699999V0202701N006219999999N0000001N9-00281+99999098191ADDGF100991999999999999999999
0029028690999991912043013004+65950+029200FM-12+025699999V0202701N006219999999N0000001N9+00111+99999097761ADDGF102991999999999999999999
0029028690999991912043020004+65950+029200FM-12+025699999V0202701N009819999999N0000001N9-00061+99999097701ADDGF108991999999999999999999
0029028690999991912050106004+65950+029200FM-12+025699999V0209991C000019999999N0000001N9-00441+99999097921ADDGF100991999999999999999999
0029028690999991912050113004+65950+029200FM-12+025699999V0203601N008219999999N0000001N9-00171+99999098041ADDGF106991999999999999999999
0029028690999991912050120004+65950+029200FM-12+025699999V0209991C000019999999N0000001N9-00611+99999098391ADDGF102991999999999999999999
0029028690999991912050206004+65950+029200FM-12+025699999V0203601N004119999999N0000001N9-00391+99999098441ADDGF106991999999999999999999
0029028690999991912050213004+65950+029200FM-12+025699999V0203401N004119999999N0000001N9-00281+99999098401ADDGF108991999999999999999999
0029028690999991912050220004+65950+029200FM-12+025699999V0209991C000019999999N0000001N9-00561+99999098361ADDGF100991999999999999999999
0029028690999991912050306004+65950+029200FM-12+025699999V0209991C000019999999N0000001N9-00441+99999098381ADDGF108991999999999999999999
0029028690999991912050313004+65950+029200FM-12+025699999V0209991C000019999999N0000001N9-00111+99999098261ADDGF106991999999999999999999
0029028690999991912050320004+65950+029200FM-12+025699999V0209991C000019999999N0000001N9-00391+99999098221ADDGF100991999999999999999999
0029028690999991912050406004+65950+029200FM-12+025699999V0200901N002119999999N0000001N9-00391+99999097791ADDGF108991999999999999999999
0029028690999991912050413004+65950+029200FM-12+025699999V0201101N002119999999N0000001N9+00001+99999097701ADDGF108991999999999999999999
0029028690999991912050420004+65950+029200FM-12+025699999V0209991C000019999999N0000001N9-00281+99999097671ADDGF106991999999999999999999
0029028690999991912050506004+65950+029200FM-12+025699999V0209991C000019999999N0000001N9-00501+99999097681ADDGF100991999999999999999999
0029028690999991912050513004+65950+029200FM-12+025699999V0203601N004119999999N0000001N9+00001+99999097631ADDGF108991999999999999999999
0029028690999991912050520004+65950+029200FM-12+025699999V0209991C000019999999N0000001N9-00391+99999097751ADDGF100991999999999999999999
0029028690999991912050606004+65950+029200FM-12+025699999V0203601N002119999999N0000001N9-00281+99999098101ADDGF100991999999999999999999
0029028690999991912050613004+65950+029200FM-12+025699999V0202701N004119999999N0000001N9+00111+99999098181ADDGF106991999999999999999999
0029028690999991912050620004+65950+029200FM-12+025699999V0209991C000019999999N0000001N9-00501+99999098421ADDGF100991999999999999999999
0029028690999991912050706004+65950+029200FM-12+025699999V0203201N002119999999N0000001N9-00281+99999098791ADDGF100991999999999999999999
0029028690999991912050713004+65950+029200FM-12+025699999V0203401N006219999999N0000001N9-00061+99999098951ADDGF106991999999999999999999
0029028690999991912050720004+65950+029200FM-12+025699999V0209991C000019999999N0000001N9-00331+99999099151ADDGF106991999999999999999999
0029028690999991912050806004+65950+029200FM-12+025699999V0200501N002119999999N0000001N9-00441+99999099631ADDGF106991999999999999999999
0029028690999991912050813004+65950+029200FM-12+025699999V0201401N002119999999N0000001N9+00001+99999099561ADDGF100991999999999999999999
0029028690999991912050820004+65950+029200FM-12+025699999V0209991C000019999999N0000001N9-00331+99999098671ADDGF100991999999999999999999
0029028690999991912050906004+65950+029200FM-12+025699999V0202301N004119999999N0000001N9+00111+99999098541ADDGF100991999999999999999999
0029028690999991912050913004+65950+029200FM-12+025699999V0201801N004119999999N0000001N9+00611+99999098261ADDGF100991999999999999999999
0029028690999991912050920004+65950+029200FM-12+025699999V0201801N002119999999N0000001N9+00281+99999098041ADDGF106991999999999999999999
0029028690999991912051006004+65950+029200FM-12+025699999V0201801N004119999999N0000001N9-00061+99999097861ADDGF100991999999999999999999
0029028690999991912051013004+65950+029200FM-12+025699999V0201101N002119999999N0000001N9+00501+99999097751ADDGF100991999999999999999999
0029028690999991912051020004+65950+029200FM-12+025699999V0203401N002119999999N0000001N9+00171+99999097541ADDGF106991999999999999999999
0029028690999991912051106004+65950+029200FM-12+025699999V0209991C000019999999N0000001N9+00331+99999097191ADDGF108991999999999999999999
0029028690999991912051113004+65950+029200FM-12+025699999V0202901N002119999999N0000001N9+00391+99999097341ADDGF108991999999999999999999
0029028690999991912051120004+65950+029200FM-12+025699999V0209991C000019999999N0000001N9+00331+99999097521ADDGF108991999999999999999999
0029028690999991912051206004+65950+029200FM-12+025699999V0201401N002119999999N0000001N9+00331+99999097401ADDGF108991999999999999999999
0029028690999991912051213004+65950+029200FM-12+025699999V0201801N002119999999N0000001N9+00671+99999097311ADDGF106991999999999999999999
0029028690999991912051220004+65950+029200FM-12+025699999V0201601N006219999999N0000001N9+00561+99999097201ADDGF108991999999999999999999
0029028690999991912051306004+65950+029200FM-12+025699999V0200901N006219999999N0000001N9+00391+99999096761ADDGF106991999999999999999999
0029028690999991912051313004+65950+029200FM-12+025699999V0200901N011819999999N0000001N9+00611+99999096521ADDGF108991999999999999999999
0035028690999991912051320004+65950+029200FM-12+025699999V0200901N020119999999N0000001N9+00281+99999096581ADDGF108991999999999999999999MW1621
0046028690999991912051406004+65950+029200FM-12+025699999V0200501N009819999999N0000001N9+00171+99999096951ADDAJ100009199999999GF108991999999999999999999
0029028690999991912051413004+65950+029200FM-12+025699999V0200501N013919999999N0000001N9+00671+99999097311ADDGF106991999999999999999999
0029028690999991912051420004+65950+029200FM-12+025699999V0200501N008219999999N0000001N9+00561+99999097661ADDGF103991999999999999999999
0046028690999991912051506004+65950+029200FM-12+025699999V0200501N006219999999N0000001N9+00501+99999098101ADDAJ100009199999999GF100991999999999999999999
0029028690999991912051513004+65950+029200FM-12+025699999V0200901N004119999999N0000001N9+01001+99999098361ADDGF100991999999999999999999
0029028690999991912051520004+65950+029200FM-12+025699999V0200901N002119999999N0000001N9+00671+99999098601ADDGF100991999999999999999999
0046028690999991912051606004+65950+029200FM-12+025699999V0200501N006219999999N0000001N9+00441+99999098921ADDAJ100009199999999GF100991999999999999999999
0029028690999991912051613004+65950+029200FM-12+025699999V0200901N004119999999N0000001N9+00721+99999099071ADDGF100991999999999999999999
0029028690999991912051620004+65950+029200FM-12+025699999V0200901N004119999999N0000001N9+00061+99999099161ADDGF101991999999999999999999
0046028690999991912051706004+65950+029200FM-12+025699999V0200701N008219999999N0000001N9-00281+99999099191ADDAJ100009199999999GF102991999999999999999999
0029028690999991912051713004+65950+029200FM-12+025699999V0200701N009819999999N0000001N9+00331+99999099111ADDGF100991999999999999999999
0029028690999991912051720004+65950+029200FM-12+025699999V0200701N006219999999N0000001N9+00061+99999099001ADDGF100991999999999999999999
0046028690999991912051806004+65950+029200FM-12+025699999V0200701N009819999999N0000001N9+00001+99999098721ADDAJ100009199999999GF102991999999999999999999
0029028690999991912051813004+65950+029200FM-12+025699999V0200701N011819999999N0000001N9+00501+99999098431ADDGF108991999999999999999999
0035028690999991912051820004+65950+029200FM-12+025699999V0200501N004119999999N0000001N9+00111+99999098241ADDGF108991999999999999999999MW1621
0046028690999991912051906004+65950+029200FM-12+025699999V0200501N006219999999N0000001N9-00061+99999098021ADDAJ100009199999999GF108991999999999999999999
0035028690999991912051913004+65950+029200FM-12+025699999V0200501N004119999999N0000001N9+00171+99999097871ADDGF108991999999999999999999MW1621
0035028690999991912051920004+65950+029200FM-12+025699999V0209991C000019999999N0000001N9+00171+99999097791ADDGF108991999999999999999999MW1621
0052028690999991912052006004+65950+029200FM-12+025699999V0200901N002119999999N0000001N9+00171+99999097981ADDAJ100009199999999GF108991999999999999999999MW1621
0029028690999991912052013004+65950+029200FM-12+025699999V0202301N004119999999N0000001N9+00441+99999098121ADDGF108991999999999999999999
0029028690999991912052020004+65950+029200FM-12+025699999V0209991C000019999999N0000001N9+00281+99999098161ADDGF108991999999999999999999
0046028690999991912052106004+65950+029200FM-12+025699999V0209991C000019999999N0000001N9+00331+99999098191ADDAJ100009199999999GF108991999999999999999999
0035028690999991912052113004+65950+029200FM-12+025699999V0203201N004119999999N0000001N9+00721+99999098111ADDGF108991999999999999999999MW1621
0029028690999991912052120004+65950+029200FM-12+025699999V0209991C000019999999N0000001N9+00501+99999098081ADDGF106991999999999999999999
0046028690999991912052206004+65950+029200FM-12+025699999V0209991C000019999999N0000001N9+00721+99999098121ADDAJ100009199999999GF100991999999999999999999
0029028690999991912052213004+65950+029200FM-12+025699999V0202001N004119999999N0000001N9+01171+99999098081ADDGF100991999999999999999999
0029028690999991912052220004+65950+029200FM-12+025699999V0209991C000019999999N0000001N9+00831+99999098161ADDGF100991999999999999999999
0046028690999991912052306004+65950+029200FM-12+025699999V0209991C000019999999N0000001N9+00781+99999098361ADDAJ100009199999999GF100991999999999999999999
0029028690999991912052313004+65950+029200FM-12+025699999V0201401N002119999999N0000001N9+01441+99999098471ADDGF100991999999999999999999
0029028690999991912052320004+65950+029200FM-12+025699999V0200901N004119999999N0000001N9+00781+99999098521ADDGF102991999999999999999999
0046028690999991912052406004+65950+029200FM-12+025699999V0201101N006219999999N0000001N9+00561+99999098751ADDAJ100009199999999GF108991999999999999999999
0029028690999991912052413004+65950+029200FM-12+025699999V0201101N004119999999N0000001N9+00561+99999098801ADDGF108991999999999999999999
0035028690999991912052420004+65950+029200FM-12+025699999V0201101N004119999999N0000001N9+00221+99999098781ADDGF108991999999999999999999MW1621
0046028690999991912052506004+65950+029200FM-12+025699999V0200501N002119999999N0000001N9+00221+99999098641ADDAJ100009199999999GF108991999999999999999999
0029028690999991912052513004+65950+029200FM-12+025699999V0203201N002119999999N0000001N9+00561+99999098721ADDGF108991999999999999999999
0029028690999991912052520004+65950+029200FM-12+025699999V0203201N006219999999N0000001N9+00611+99999098831ADDGF106991999999999999999999
0046028690999991912052606004+65950+029200FM-12+025699999V0200501N008219999999N0000001N9+00721+99999098871ADDAJ100009199999999GF104991999999999999999999
0029028690999991912052613004+65950+029200FM-12+025699999V0200701N004119999999N0000001N9+01061+99999098861ADDGF102991999999999999999999
0029028690999991912052620004+65950+029200FM-12+025699999V0200901N008219999999N0000001N9+00561+99999098861ADDGF105991999999999999999999
0046028690999991912052706004+65950+029200FM-12+025699999V0201101N011819999999N0000001N9+00391+99999098741ADDAJ100009199999999GF108991999999999999999999
0029028690999991912052713004+65950+029200FM-12+025699999V0200901N011819999999N0000001N9+00331+99999098591ADDGF108991999999999999999999
0035028690999991912052720004+65950+029200FM-12+025699999V0200901N008219999999N0000001N9+00171+99999098421ADDGF108991999999999999999999MW1601
0046028690999991912052806004+65950+029200FM-12+025699999V0200901N004119999999N0000001N9+00281+99999098121ADDAJ100009199999999GF108991999999999999999999
0029028690999991912052813004+65950+029200FM-12+025699999V0200901N006219999999N0000001N9+00671+99999098001ADDGF108991999999999999999999
0035028690999991912052820004+65950+029200FM-12+025699999V0209991C000019999999N0000001N9+00501+99999097821ADDGF106991999999999999999999MW1621
0046028690999991912052906004+65950+029200FM-12+025699999V0200901N006219999999N0000001N9+00501+99999097561ADDAJ100009199999999GF108991999999999999999999
0029028690999991912052913004+65950+029200FM-12+025699999V0201101N002119999999N0000001N9+01501+99999097511ADDGF102991999999999999999999
0029028690999991912052920004+65950+029200FM-12+025699999V0209991C000019999999N0000001N9+01001+99999097431ADDGF106991999999999999999999
0052028690999991912053006004+65950+029200FM-12+025699999V0200901N002119999999N0000001N9+00891+99999097261ADDAJ100009199999999GF108991999999999999999999MW1621
0029028690999991912053013004+65950+029200FM-12+025699999V0200901N008219999999N0000001N9+01561+99999097151ADDGF106991999999999999999999
0035028690999991912053020004+65950+029200FM-12+025699999V0201801N002119999999N0000001N9+01171+99999097281ADDGF104991999999999999999999MW1621
0046028690999991912053106004+65950+029200FM-12+025699999V0209991C000019999999N0000001N9+01001+99999097471ADDAJ100009199999999GF108991999999999999999999
0029028690999991912053113004+65950+029200FM-12+025699999V0200701N013919999999N0000001N9+01171+99999097381ADDGF106991999999999999999999
0029028690999991912053120004+65950+029200FM-12+025699999V0200501N009819999999N0000001N9+00781+99999097511ADDGF108991999999999999999999
0046028690999991912060106004+65950+029200FM-12+025699999V0200201N008219999999N0000001N9+00331+99999097391ADDAJ100009199999999GF108991999999999999999999
0035028690999991912060113004+65950+029200FM-12+025699999V0203601N009819999999N0000001N9+00331+99999097191ADDGF108991999999999999999999MW1621
0035028690999991912060120004+65950+029200FM-12+025699999V0203601N004119999999N0000001N9+00111+99999097341ADDGF108991999999999999999999MW1721
0046028690999991912060206004+65950+029200FM-12+025699999V0202901N006219999999N0000001N9+00221+99999097581ADDAJ100009199999999GF106991999999999999999999
0029028690999991912060213004+65950+029200FM-12+025699999V0202701N006219999999N0000001N9+01171+99999097591ADDGF100991999999999999999999
0029028690999991912060220004+65950+029200FM-12+025699999V0202301N004119999999N0000001N9+00831+99999097661ADDGF102991999999999999999999
0052028690999991912060306004+65950+029200FM-12+025699999V0202701N002119999999N0000001N9+00611+99999097591ADDAJ100009199999999GF108991999999999999999999MW1621
0029028690999991912060313004+65950+029200FM-12+025699999V0202701N006219999999N0000001N9+01171+99999097661ADDGF102991999999999999999999
0029028690999991912060320004+65950+029200FM-12+025699999V0203201N006219999999N0000001N9+00501+99999097861ADDGF106991999999999999999999
0046028690999991912060406004+65950+029200FM-12+025699999V0202701N004119999999N0000001N9+00611+99999097781ADDAJ100009199999999GF100991999999999999999999
0029028690999991912060413004+65950+029200FM-12+025699999V0203401N006219999999N0000001N9+00831+99999097861ADDGF105991999999999999999999
0029028690999991912060420004+65950+029200FM-12+025699999V0200501N002119999999N0000001N9+00561+99999097831ADDGF100991999999999999999999
0046028690999991912060506004+65950+029200FM-12+025699999V0203201N004119999999N0000001N9+00611+99999098121ADDAJ100009199999999GF106991999999999999999999
0029028690999991912060513004+65950+029200FM-12+025699999V0203601N006219999999N0000001N9+00941+99999098511ADDGF100991999999999999999999
0029028690999991912060520004+65950+029200FM-12+025699999V0203601N002119999999N0000001N9+00611+99999098781ADDGF102991999999999999999999
0046028690999991912060606004+65950+029200FM-12+025699999V0202301N004119999999N0000001N9+01001+99999099151ADDAJ100009199999999GF100991999999999999999999
0029028690999991912060613004+65950+029200FM-12+025699999V0202701N004119999999N0000001N9+01561+99999099071ADDGF100991999999999999999999
0029028690999991912060620004+65950+029200FM-12+025699999V0209991C000019999999N0000001N9+01221+99999099031ADDGF100991999999999999999999
0046028690999991912060706004+65950+029200FM-12+025699999V0202701N006219999999N0000001N9+01281+99999099061ADDAJ100009199999999GF100991999999999999999999
0029028690999991912060713004+65950+029200FM-12+025699999V0202701N002119999999N0000001N9+01891+99999098951ADDGF100991999999999999999999
0029028690999991912060720004+65950+029200FM-12+025699999V0209991C000019999999N0000001N9+01671+99999098951ADDGF100991999999999999999999
0046028690999991912060806004+65950+029200FM-12+025699999V0202301N002119999999N0000001N9+01561+99999098801ADDAJ100009199999999GF102991999999999999999999
0029028690999991912060813004+65950+029200FM-12+025699999V0202301N008219999999N0000001N9+01891+99999098511ADDGF102991999999999999999999
0029028690999991912060820004+65950+029200FM-12+025699999V0209991C000019999999N0000001N9+01281+99999098581ADDGF100991999999999999999999
0046028690999991912060906004+65950+029200FM-12+025699999V0201801N004119999999N0000001N9+01501+99999098111ADDAJ100009199999999GF108991999999999999999999
0035028690999991912060913004+65950+029200FM-12+025699999V0200901N011819999999N0000001N9+01171+99999097221ADDGF108991999999999999999999MW1621
0035028690999991912060920004+65950+029200FM-12+025699999V0202301N008219999999N0000001N9+01001+99999096801ADDGF108991999999999999999999MW1621
0046028690999991912061006004+65950+029200FM-12+025699999V0202301N004119999999N0000001N9+01111+99999097121ADDAJ100009199999999GF108991999999999999999999
0029028690999991912061013004+65950+029200FM-12+025699999V0202701N015919999999N0000001N9+01671+99999097141ADDGF103991999999999999999999
0035028690999991912061020004+65950+029200FM-12+025699999V0203201N002119999999N0000001N9+00831+99999097351ADDGF108991999999999999999999MW1601
0046028690999991912061106004+65950+029200FM-12+025699999V0203601N002119999999N0000001N9+00721+99999097551ADDAJ100009199999999GF108991999999999999999999
0029028690999991912061113004+65950+029200FM-12+025699999V0209991C000019999999N0000001N9+01061+99999097671ADDGF106991999999999999999999
0035028690999991912061120004+65950+029200FM-12+025699999V0209991C000019999999N0000001N9+00891+99999097721ADDGF108991999999999999999999MW1621
0046028690999991912061206004+65950+029200FM-12+025699999V0203601N004119999999N0000001N9+00501+99999097941ADDAJ100009199999999GF108991999999999999999999
0029028690999991912061213004+65950+029200FM-12+025699999V0203601N002119999999N0000001N9+01061+99999098041ADDGF102991999999999999999999
0029028690999991912061220004+65950+029200FM-12+025699999V0201601N004119999999N0000001N9+00941+99999097911ADDGF102991999999999999999999
0046028690999991912061306004+65950+029200FM-12+025699999V0202301N011819999999N0000001N9+01221+99999097461ADDAJ100009199999999GF100991999999999999999999
0029028690999991912061313004+65950+029200FM-12+025699999V0202301N020119999999N0000001N9+01391+99999097401ADDGF100991999999999999999999
0029028690999991912061320004+65950+029200FM-12+025699999V0202301N004119999999N0000001N9+00781+99999097391ADDGF100991999999999999999999
0046028690999991912061406004+65950+029200FM-12+025699999V0203601N004119999999N0000001N9+00671+99999097631ADDAJ100009199999999GF100991999999999999999999
0029028690999991912061413004+65950+029200FM-12+025699999V0200901N004119999999N0000001N9+01281+99999097831ADDGF100991999999999999999999
0029028690999991912061420004+65950+029200FM-12+025699999V0200901N004119999999N0000001N9+01001+99999097981ADDGF102991999999999999999999
0046028690999991912061506004+65950+029200FM-12+025699999V0200901N009819999999N0000001N9+00831+99999098141ADDAJ100009199999999GF106991999999999999999999
0035028690999991912061513004+65950+029200FM-12+025699999V0200901N027819999999N0000001N9+00891+99999097911ADDGF108991999999999999999999MW1621
0035028690999991912061520004+65950+029200FM-12+025699999V0200901N020119999999N0000001N9+00391+99999097221ADDGF108991999999999999999999MW1621
0046028690999991912061606004+65950+029200FM-12+025699999V0201101N008219999999N0000001N9+00391+99999096631ADDAJ100009199999999GF108991999999999999999999
0035028690999991912061613004+65950+029200FM-12+025699999V0209991C000019999999N0000001N9+00671+99999096641ADDGF108991999999999999999999MW1621
0029028690999991912061620004+65950+029200FM-12+025699999V0200901N008219999999N0000001N9+01001+99999096361ADDGF106991999999999999999999
0052028690999991912061706004+65950+029200FM-12+025699999V0201601N008219999999N0000001N9+00941+99999096301ADDAJ100009199999999GF108991999999999999999999MW1621
0035028690999991912061713004+65950+029200FM-12+025699999V0202301N009819999999N0000001N9+01221+99999096841ADDGF106991999999999999999999MW1621
0035028690999991912061720004+65950+029200FM-12+025699999V0209991C000019999999N0000001N9+01001+99999097181ADDGF102991999999999999999999MW1621
0046028690999991912061806004+65950+029200FM-12+025699999V0201401N011819999999N0000001N9+01001+99999097281ADDAJ100009199999999GF104991999999999999999999
0035028690999991912061813004+65950+029200FM-12+025699999V0202001N004119999999N0000001N9+01111+99999097511ADDGF106991999999999999999999MW1621
0029028690999991912061820004+65950+029200FM-12+025699999V0209991C000019999999N0000001N9+01061+99999097801ADDGF102991999999999999999999
0046028690999991912061906004+65950+029200FM-12+025699999V0200201N002119999999N0000001N9+01221+99999098021ADDAJ100009199999999GF102991999999999999999999
0029028690999991912061913004+65950+029200FM-12+025699999V0200901N006219999999N0000001N9+01671+99999098031ADDGF103991999999999999999999
0029028690999991912061920004+65950+029200FM-12+025699999V0200901N006219999999N0000001N9+01501+99999097861ADDGF108991999999999999999999
0046028690999991912062006004+65950+029200FM-12+025699999V0201801N008219999999N0000001N9+01281+99999097911ADDAJ100009199999999GF106991999999999999999999
0029028690999991912062013004+65950+029200FM-12+025699999V0202301N006219999999N0000001N9+01331+99999098121ADDGF108991999999999999999999
0029028690999991912062020004+65950+029200FM-12+025699999V0202701N006219999999N0000001N9+01111+99999098261ADDGF106991999999999999999999
0046028690999991912062106004+65950+029200FM-12+025699999V0200201N006219999999N0000001N9+01281+99999098381ADDAJ100009199999999GF102991999999999999999999
0029028690999991912062113004+65950+029200FM-12+025699999V0200901N002119999999N0000001N9+01891+99999098271ADDGF100991999999999999999999
0029028690999991912062120004+65950+029200FM-12+025699999V0201101N002119999999N0000001N9+01671+99999098361ADDGF101991999999999999999999
0046028690999991912062206004+65950+029200FM-12+025699999V0200501N006219999999N0000001N9+01561+99999098581ADDAJ100009199999999GF106991999999999999999999
0029028690999991912062213004+65950+029200FM-12+025699999V0200901N004119999999N0000001N9+01611+99999098671ADDGF108991999999999999999999
0029028690999991912062220004+65950+029200FM-12+025699999V0200901N004119999999N0000001N9+01501+99999098821ADDGF108991999999999999999999
0046028690999991912062306004+65950+029200FM-12+025699999V0200901N004119999999N0000001N9+01721+99999098901ADDAJ100009199999999GF100991999999999999999999
0029028690999991912062313004+65950+029200FM-12+025699999V0209991C000019999999N0000001N9+01941+99999098881ADDGF105991999999999999999999
0029028690999991912062320004+65950+029200FM-12+025699999V0209991C000019999999N0000001N9+01941+99999098901ADDGF100991999999999999999999
0046028690999991912062406004+65950+029200FM-12+025699999V0200901N002119999999N0000001N9+02001+99999098801ADDAJ100009199999999GF100991999999999999999999
0029028690999991912062413004+65950+029200FM-12+025699999V0200901N004119999999N0000001N9+02441+99999098741ADDGF100991999999999999999999
0029028690999991912062420004+65950+029200FM-12+025699999V0200901N002119999999N0000001N9+01781+99999098681ADDGF102991999999999999999999
0046028690999991912062506004+65950+029200FM-12+025699999V0200901N008219999999N0000001N9+01781+99999098901ADDAJ100009199999999GF106991999999999999999999
0029028690999991912062513004+65950+029200FM-12+025699999V0200901N006219999999N0000001N9+01781+99999098821ADDGF102991999999999999999999
0029028690999991912062520004+65950+029200FM-12+025699999V0201101N002119999999N0000001N9+01561+99999098841ADDGF108991999999999999999999
0046028690999991912062606004+65950+029200FM-12+025699999V0202301N002119999999N0000001N9+01721+99999098901ADDAJ100009199999999GF100991999999999999999999
0035028690999991912062613004+65950+029200FM-12+025699999V0202501N004119999999N0000001N9+01831+99999098921ADDGF108991999999999999999999MW1621
0029028690999991912062620004+65950+029200FM-12+025699999V0209991C000019999999N0000001N9+01671+99999098901ADDGF106991999999999999999999
0046028690999991912062706004+65950+029200FM-12+025699999V0209991C000019999999N0000001N9+01941+99999098861ADDAJ100009199999999GF100991999999999999999999
0029028690999991912062713004+65950+029200FM-12+025699999V0201101N004119999999N0000001N9+02281+99999098791ADDGF103991999999999999999999
0029028690999991912062720004+65950+029200FM-12+025699999V0201601N002119999999N0000001N9+01721+99999098741ADDGF106991999999999999999999
0046028690999991912062806004+65950+029200FM-12+025699999V0201101N006219999999N0000001N9+01721+99999098601ADDAJ100009199999999GF102991999999999999999999
0029028690999991912062813004+65950+029200FM-12+025699999V0201101N006219999999N0000001N9+01891+99999098471ADDGF106991999999999999999999
0029028690999991912062820004+65950+029200FM-12+025699999V0201601N008219999999N0000001N9+01671+99999098221ADDGF108991999999999999999999
0046028690999991912062906004+65950+029200FM-12+025699999V0203601N004119999999N0000001N9+01721+99999097751ADDAJ100009199999999GF105991999999999999999999
0029028690999991912062913004+65950+029200FM-12+025699999V0203601N008219999999N0000001N9+01281+99999097901ADDGF108991999999999999999999
0029028690999991912062920004+65950+029200FM-12+025699999V0200501N006219999999N0000001N9+00781+99999098101ADDGF105991999999999999999999
0046028690999991912063006004+65950+029200FM-12+025699999V0203601N006219999999N0000001N9+00501+99999098241ADDAJ100009199999999GF102991999999999999999999
0029028690999991912063013004+65950+029200FM-12+025699999V0203601N008219999999N0000001N9+00891+99999098241ADDGF108991999999999999999999
0029028690999991912063020004+65950+029200FM-12+025699999V0203401N006219999999N0000001N9+00671+99999098241ADDGF108991999999999999999999
0046028690999991912070106004+65950+029200FM-12+025699999V0203601N011819999999N0000001N9+00611+99999098201ADDAJ100009199999999GF106991999999999999999999
0029028690999991912070113004+65950+029200FM-12+025699999V0203601N011819999999N0000001N9+00781+99999098081ADDGF108991999999999999999999
0029028690999991912070120004+65950+029200FM-12+025699999V0203601N009819999999N0000001N9+00441+99999098031ADDGF108991999999999999999999
0046028690999991912070206004+65950+029200FM-12+025699999V0203601N011819999999N0000001N9+00501+99999098141ADDAJ100009199999999GF108991999999999999999999
0029028690999991912070213004+65950+029200FM-12+025699999V0200501N011819999999N0000001N9+01061+99999098391ADDGF105991999999999999999999
0029028690999991912070220004+65950+029200FM-12+025699999V0200501N006219999999N0000001N9+00781+99999098581ADDGF102991999999999999999999
0046028690999991912070306004+65950+029200FM-12+025699999V0200501N004119999999N0000001N9+00831+99999098541ADDAJ100009199999999GF106991999999999999999999
0029028690999991912070313004+65950+029200FM-12+025699999V0200501N006219999999N0000001N9+01111+99999098541ADDGF108991999999999999999999
0029028690999991912070320004+65950+029200FM-12+025699999V0209991C000019999999N0000001N9+00941+99999098641ADDGF103991999999999999999999
0046028690999991912070406004+65950+029200FM-12+025699999V0203201N001019999999N0000001N9+01061+99999098581ADDAJ100009199999999GF100991999999999999999999
0035028690999991912070413004+65950+029200FM-12+025699999V0202501N008219999999N0000001N9+01671+99999098431ADDGF100991999999999999999999MW1051
0029028690999991912070420004+65950+029200FM-12+025699999V0202301N001019999999N0000001N9+01281+99999098121ADDGF100991999999999999999999
0046028690999991912070506004+65950+029200FM-12+025699999V0202701N009819999999N0000001N9+01501+99999097061ADDAJ100009199999999GF103991999999999999999999
0029028690999991912070513004+65950+029200FM-12+025699999V0202901N015919999999N0000001N9+01561+99999097001ADDGF103991999999999999999999
0029028690999991912070520004+65950+029200FM-12+025699999V0203601N009819999999N0000001N9+00781+99999097381ADDGF108991999999999999999999
0046028690999991912070606004+65950+029200FM-12+025699999V0203601N011819999999N0000001N9+00831+99999097561ADDAJ100009199999999GF102991999999999999999999
0029028690999991912070613004+65950+029200FM-12+025699999V0203201N009819999999N0000001N9+01281+99999097741ADDGF108991999999999999999999
0029028690999991912070620004+65950+029200FM-12+025699999V0203201N009819999999N0000001N9+01061+99999097701ADDGF108991999999999999999999
0046028690999991912070706004+65950+029200FM-12+025699999V0203201N008219999999N0000001N9+00781+99999097881ADDAJ100009199999999GF100991999999999999999999
0029028690999991912070713004+65950+029200FM-12+025699999V0203401N004119999999N0000001N9+01281+99999097981ADDGF100991999999999999999999
0029028690999991912070720004+65950+029200FM-12+025699999V0209991C000019999999N0000001N9+01171+99999098081ADDGF106991999999999999999999
0046028690999991912070806004+65950+029200FM-12+025699999V0200501N006219999999N0000001N9+01171+99999098461ADDAJ100009199999999GF100991999999999999999999
0029028690999991912070813004+65950+029200FM-12+025699999V0203601N004119999999N0000001N9+01561+99999098471ADDGF102991999999999999999999
0029028690999991912070820004+65950+029200FM-12+025699999V0209991C000019999999N0000001N9+01331+99999098521ADDGF101991999999999999999999
0046028690999991912070906004+65950+029200FM-12+025699999V0209991C000019999999N0000001N9+01221+99999098591ADDAJ100009199999999GF100991999999999999999999
0029028690999991912070913004+65950+029200FM-12+025699999V0209991C000019999999N0000001N9+01941+99999098581ADDGF100991999999999999999999
0029028690999991912070920004+65950+029200FM-12+025699999V0209991C000019999999N0000001N9+01561+99999098641ADDGF100991999999999999999999
0046028690999991912071006004+65950+029200FM-12+025699999V0209991C000019999999N0000001N9+01331+99999098761ADDAJ100009199999999GF100991999999999999999999
0029028690999991912071013004+65950+029200FM-12+025699999V0209991C000019999999N0000001N9+01941+99999098821ADDGF100991999999999999999999
0029028690999991912071020004+65950+029200FM-12+025699999V0209991C000019999999N0000001N9+01501+99999098921ADDGF100991999999999999999999
0046028690999991912071106004+65950+029200FM-12+025699999V0200501N002119999999N0000001N9+01441+99999098991ADDAJ100009199999999GF105991999999999999999999
0029028690999991912071113004+65950+029200FM-12+025699999V0200501N004119999999N0000001N9+01611+99999099021ADDGF106991999999999999999999
0029028690999991912071120004+65950+029200FM-12+025699999V0209991C000019999999N0000001N9+01331+99999099231ADDGF100991999999999999999999
0046028690999991912071206004+65950+029200FM-12+025699999V0209991C000019999999N0000001N9+01611+99999099381ADDAJ100009199999999GF100991999999999999999999
0029028690999991912071213004+65950+029200FM-12+025699999V0209991C000019999999N0000001N9+02111+99999099421ADDGF100991999999999999999999
0029028690999991912071220004+65950+029200FM-12+025699999V0209991C000019999999N0000001N9+01671+99999099591ADDGF100991999999999999999999
0046028690999991912071306004+65950+029200FM-12+025699999V0209991C000019999999N0000001N9+02001+99999099781ADDAJ100009199999999GF100991999999999999999999
0029028690999991912071313004+65950+029200FM-12+025699999V0209991C000019999999N0000001N9+02391+99999099661ADDGF100991999999999999999999
0029028690999991912071320004+65950+029200FM-12+025699999V0209991C000019999999N0000001N9+01941+99999099561ADDGF100991999999999999999999
0046028690999991912071406004+65950+029200FM-12+025699999V0202301N006219999999N0000001N9+01941+99999099481ADDAJ100009199999999GF100991999999999999999999
0029028690999991912071413004+65950+029200FM-12+025699999V0202301N008219999999N0000001N9+02391+99999099261ADDGF100991999999999999999999
0029028690999991912071420004+65950+029200FM-12+025699999V0209991C000019999999N0000001N9+01781+99999099281ADDGF106991999999999999999999
0046028690999991912071506004+65950+029200FM-12+025699999V0209991C000019999999N0000001N9+01781+99999099441ADDAJ100009199999999GF108991999999999999999999
0029028690999991912071513004+65950+029200FM-12+025699999V0202301N004119999999N0000001N9+02611+99999099151ADDGF100991999999999999999999
0029028690999991912071520004+65950+029200FM-12+025699999V0209991C000019999999N0000001N9+01831+99999099161ADDGF100991999999999999999999
0046028690999991912071606004+65950+029200FM-12+025699999V0202301N008219999999N0000001N9+01831+99999099111ADDAJ100009199999999GF103991999999999999999999
0029028690999991912071613004+65950+029200FM-12+025699999V0202301N009819999999N0000001N9+02221+99999099061ADDGF102991999999999999999999
0029028690999991912071620004+65950+029200FM-12+025699999V0209991C000019999999N0000001N9+01671+99999099041ADDGF100991999999999999999999
0046028690999991912071706004+65950+029200FM-12+025699999V0209991C000019999999N0000001N9+01671+99999098981ADDAJ100009199999999GF106991999999999999999999
0029028690999991912071713004+65950+029200FM-12+025699999V0209991C000019999999N0000001N9+02061+99999098901ADDGF102991999999999999999999
0029028690999991912071720004+65950+029200FM-12+025699999V0209991C000019999999N0000001N9+01561+99999098681ADDGF100991999999999999999999
0046028690999991912071806004+65950+029200FM-12+025699999V0209991C000019999999N0000001N9+01441+99999098621ADDAJ100009199999999GF100991999999999999999999
0029028690999991912071813004+65950+029200FM-12+025699999V0202301N004119999999N0000001N9+01891+99999098501ADDGF103991999999999999999999
0029028690999991912071820004+65950+029200FM-12+025699999V0209991C000019999999N0000001N9+01061+99999098461ADDGF105991999999999999999999
0046028690999991912071906004+65950+029200FM-12+025699999V0202301N011819999999N0000001N9+01441+99999098381ADDAJ100009199999999GF100991999999999999999999
0029028690999991912071913004+65950+029200FM-12+025699999V0202501N011819999999N0000001N9+01781+99999098261ADDGF103991999999999999999999
0029028690999991912071920004+65950+029200FM-12+025699999V0202301N002119999999N0000001N9+01441+99999098321ADDGF105991999999999999999999
0046028690999991912072006004+65950+029200FM-12+025699999V0203601N002119999999N0000001N9+01391+99999098501ADDAJ100009199999999GF100991999999999999999999
0029028690999991912072013004+65950+029200FM-12+025699999V0203201N006219999999N0000001N9+01671+99999098501ADDGF101991999999999999999999
0029028690999991912072020004+65950+029200FM-12+025699999V0203601N002119999999N0000001N9+01111+99999098591ADDGF100991999999999999999999
0046028690999991912072106004+65950+029200FM-12+025699999V0209991C000019999999N0000001N9+01171+99999098711ADDAJ100009199999999GF100991999999999999999999
0029028690999991912072113004+65950+029200FM-12+025699999V0203201N006219999999N0000001N9+01501+99999098621ADDGF100991999999999999999999
0029028690999991912072120004+65950+029200FM-12+025699999V0203601N002119999999N0000001N9+01001+99999098711ADDGF103991999999999999999999
0046028690999991912072206004+65950+029200FM-12+025699999V0200501N006219999999N0000001N9+01111+99999098861ADDAJ100009199999999GF100991999999999999999999
0029028690999991912072213004+65950+029200FM-12+025699999V0200501N002119999999N0000001N9+01281+99999098871ADDGF106991999999999999999999
0029028690999991912072220004+65950+029200FM-12+025699999V0200501N004119999999N0000001N9+00941+99999099021ADDGF106991999999999999999999
0046028690999991912072306004+65950+029200FM-12+025699999V0200501N002119999999N0000001N9+01001+99999099161ADDAJ100009199999999GF100991999999999999999999
0029028690999991912072313004+65950+029200FM-12+025699999V0202901N002119999999N0000001N9+01441+99999099031ADDGF102991999999999999999999
0029028690999991912072320004+65950+029200FM-12+025699999V0209991C000019999999N0000001N9+01171+99999098831ADDGF100991999999999999999999
0046028690999991912072406004+65950+029200FM-12+025699999V0202301N009819999999N0000001N9+01221+99999098271ADDAJ100009199999999GF100991999999999999999999
0029028690999991912072413004+65950+029200FM-12+025699999V0203201N009819999999N0000001N9+01831+99999098151ADDGF105991999999999999999999
0029028690999991912072420004+65950+029200FM-12+025699999V0203401N002119999999N0000001N9+01331+99999098441ADDGF100991999999999999999999
0046028690999991912072506004+65950+029200FM-12+025699999V0209991C000019999999N0000001N9+01111+99999098751ADDAJ100009199999999GF100991999999999999999999
0029028690999991912072513004+65950+029200FM-12+025699999V0202701N004119999999N0000001N9+01831+99999098631ADDGF100991999999999999999999
0029028690999991912072520004+65950+029200FM-12+025699999V0209991C000019999999N0000001N9+01281+99999098591ADDGF100991999999999999999999
0046028690999991912072606004+65950+029200FM-12+025699999V0202301N006219999999N0000001N9+01721+99999098361ADDAJ100009199999999GF100991999999999999999999
0029028690999991912072613004+65950+029200FM-12+025699999V0202701N011819999999N0000001N9+02111+99999098071ADDGF106991999999999999999999
0029028690999991912072620004+65950+029200FM-12+025699999V0203401N002119999999N0000001N9+01391+99999098261ADDGF106991999999999999999999
0046028690999991912072706004+65950+029200FM-12+025699999V0209991C000019999999N0000001N9+01111+99999098341ADDAJ100009199999999GF108991999999999999999999
0029028690999991912072713004+65950+029200FM-12+025699999V0209991C000019999999N0000001N9+01501+99999098121ADDGF103991999999999999999999
0029028690999991912072720004+65950+029200FM-12+025699999V0200501N004119999999N0000001N9+01281+99999097951ADDGF108991999999999999999999
0046028690999991912072806004+65950+029200FM-12+025699999V0209991C000019999999N0000001N9+01281+99999097511ADDAJ100009199999999GF108991999999999999999999
0029028690999991912072813004+65950+029200FM-12+025699999V0202701N006219999999N0000001N9+02061+99999097471ADDGF106991999999999999999999
0029028690999991912072820004+65950+029200FM-12+025699999V0202701N002119999999N0000001N9+01331+99999097661ADDGF103991999999999999999999
0046028690999991912072906004+65950+029200FM-12+025699999V0202301N006219999999N0000001N9+01611+99999097671ADDAJ100009199999999GF102991999999999999999999
0035028690999991912072913004+65950+029200FM-12+025699999V0202301N006219999999N0000001N9+02171+99999097701ADDGF105991999999999999999999MW1621
0029028690999991912072920004+65950+029200FM-12+025699999V0201601N002119999999N0000001N9+01501+99999097671ADDGF103991999999999999999999
0046028690999991912073006004+65950+029200FM-12+025699999V0202301N004119999999N0000001N9+01781+99999097391ADDAJ100009199999999GF104991999999999999999999
0029028690999991912073013004+65950+029200FM-12+025699999V0202301N002119999999N0000001N9+01671+99999097361ADDGF108991999999999999999999
0029028690999991912073020004+65950+029200FM-12+025699999V0209991C000019999999N0000001N9+01331+99999097551ADDGF100991999999999999999999
0046028690999991912073106004+65950+029200FM-12+025699999V0201801N006219999999N0000001N9+01441+99999097581ADDAJ100009199999999GF104991999999999999999999
0029028690999991912073113004+65950+029200FM-12+025699999V0202301N008219999999N0000001N9+02111+99999097671ADDGF100991999999999999999999
0029028690999991912073120004+65950+029200FM-12+025699999V0201801N004119999999N0000001N9+01781+99999097721ADDGF106991999999999999999999
0046028690999991912080106004+65950+029200FM-12+025699999V0202301N004119999999N0000001N9+01781+99999097951ADDAJ100009199999999GF100991999999999999999999
0029028690999991912080113004+65950+029200FM-12+025699999V0202001N008219999999N0000001N9+02001+99999097981ADDGF105991999999999999999999
0029028690999991912080120004+65950+029200FM-12+025699999V0209991C000019999999N0000001N9+01561+99999098261ADDGF100991999999999999999999
0046028690999991912080206004+65950+029200FM-12+025699999V0201801N004119999999N0000001N9+01781+99999098591ADDAJ100009199999999GF100991999999999999999999
0029028690999991912080213004+65950+029200FM-12+025699999V0201801N009819999999N0000001N9+02171+99999098511ADDGF102991999999999999999999
0029028690999991912080220004+65950+029200FM-12+025699999V0201801N001019999999N0000001N9+01721+99999098551ADDGF106991999999999999999999
0046028690999991912080306004+65950+029200FM-12+025699999V0201801N004119999999N0000001N9+02001+99999098741ADDAJ100009199999999GF100991999999999999999999
0029028690999991912080313004+65950+029200FM-12+025699999V0201801N008219999999N0000001N9+02561+99999098801ADDGF102991999999999999999999
0029028690999991912080320004+65950+029200FM-12+025699999V0209991C000019999999N0000001N9+02171+99999098831ADDGF105991999999999999999999
0046028690999991912080406004+65950+029200FM-12+025699999V0209991C000019999999N0000001N9+02171+99999098921ADDAJ100009199999999GF100991999999999999999999
0029028690999991912080413004+65950+029200FM-12+025699999V0201801N002119999999N0000001N9+02441+99999098911ADDGF105991999999999999999999
0035028690999991912080420004+65950+029200FM-12+025699999V0201801N008219999999N0000001N9+01831+99999098901ADDGF108991999999999999999999MW1641
0046028690999991912080506004+65950+029200FM-12+025699999V0201801N004119999999N0000001N9+01831+99999098881ADDAJ100009199999999GF105991999999999999999999
0029028690999991912080513004+65950+029200FM-12+025699999V0201801N004119999999N0000001N9+02061+99999098801ADDGF106991999999999999999999
0029028690999991912080520004+65950+029200FM-12+025699999V0201801N006219999999N0000001N9+01891+99999098821ADDGF106991999999999999999999
0046028690999991912080606004+65950+029200FM-12+025699999V0200901N002119999999N0000001N9+01561+99999098821ADDAJ100009199999999GF106991999999999999999999
0029028690999991912080613004+65950+029200FM-12+025699999V0201801N006219999999N0000001N9+02281+99999098841ADDGF106991999999999999999999
0029028690999991912080620004+65950+029200FM-12+025699999V0201801N008219999999N0000001N9+02171+99999098831ADDGF108991999999999999999999
0046028690999991912080706004+65950+029200FM-12+025699999V0209991C000019999999N0000001N9+02061+99999098781ADDAJ100009199999999GF100991999999999999999999
0029028690999991912080713004+65950+029200FM-12+025699999V0209991C000019999999N0000001N9+02501+99999098711ADDGF100991999999999999999999
0029028690999991912080720004+65950+029200FM-12+025699999V0201801N001019999999N0000001N9+02111+99999098541ADDGF100991999999999999999999
0046028690999991912080806004+65950+029200FM-12+025699999V0201801N004119999999N0000001N9+02111+99999098681ADDAJ100009199999999GF100991999999999999999999
0029028690999991912080813004+65950+029200FM-12+025699999V0201801N004119999999N0000001N9+02441+99999098791ADDGF100991999999999999999999
0029028690999991912080820004+65950+029200FM-12+025699999V0209991C000019999999N0000001N9+01891+99999098791ADDGF100991999999999999999999
0046028690999991912080906004+65950+029200FM-12+025699999V0209991C000019999999N0000001N9+02001+99999098821ADDAJ100009199999999GF100991999999999999999999
0029028690999991912080913004+65950+029200FM-12+025699999V0201601N002119999999N0000001N9+02671+99999098831ADDGF100991999999999999999999
0029028690999991912080920004+65950+029200FM-12+025699999V0201801N002119999999N0000001N9+02111+99999098831ADDGF102991999999999999999999
0046028690999991912081006004+65950+029200FM-12+025699999V0201801N002119999999N0000001N9+01891+99999098881ADDAJ100009199999999GF100991999999999999999999
0035028690999991912081013004+65950+029200FM-12+025699999V0200901N004119999999N0000001N9+02391+99999098761ADDGF103991999999999999999999MW1171
0029028690999991912081020004+65950+029200FM-12+025699999V0200901N004119999999N0000001N9+01831+99999098661ADDGF103991999999999999999999
0046028690999991912081106004+65950+029200FM-12+025699999V0200901N006219999999N0000001N9+02001+99999098471ADDAJ100009199999999GF100991999999999999999999
0029028690999991912081113004+65950+029200FM-12+025699999V0200901N008219999999N0000001N9+02441+99999098401ADDGF100991999999999999999999
0029028690999991912081120004+65950+029200FM-12+025699999V0200701N008219999999N0000001N9+01941+99999098391ADDGF100991999999999999999999
0046028690999991912081206004+65950+029200FM-12+025699999V0200501N011819999999N0000001N9+01671+99999098241ADDAJ100009199999999GF100991999999999999999999
0029028690999991912081213004+65950+029200FM-12+025699999V0200901N011819999999N0000001N9+01831+99999098221ADDGF100991999999999999999999
0029028690999991912081220004+65950+029200FM-12+025699999V0200901N011819999999N0000001N9+01561+99999098241ADDGF100991999999999999999999
0046028690999991912081306004+65950+029200FM-12+025699999V0200501N009819999999N0000001N9+00891+99999098461ADDAJ100009199999999GF108991999999999999999999
0029028690999991912081313004+65950+029200FM-12+025699999V0200901N013919999999N0000001N9+01441+99999098481ADDGF108991999999999999999999
0029028690999991912081320004+65950+029200FM-12+025699999V0200901N011819999999N0000001N9+01221+99999098601ADDGF108991999999999999999999
0046028690999991912081406004+65950+029200FM-12+025699999V0200901N006219999999N0000001N9+01171+99999098561ADDAJ100009199999999GF105991999999999999999999
0029028690999991912081413004+65950+029200FM-12+025699999V0209991C000019999999N0000001N9+01611+99999098421ADDGF100991999999999999999999
0029028690999991912081420004+65950+029200FM-12+025699999V0200901N002119999999N0000001N9+01171+99999098431ADDGF102991999999999999999999
0046028690999991912081506004+65950+029200FM-12+025699999V0200901N008219999999N0000001N9+00831+99999098481ADDAJ100009199999999GF106991999999999999999999
0029028690999991912081513004+65950+029200FM-12+025699999V0200901N006219999999N0000001N9+01001+99999098501ADDGF108991999999999999999999
0029028690999991912081520004+65950+029200FM-12+025699999V0200501N006219999999N0000001N9+00781+99999098321ADDGF106991999999999999999999
0046028690999991912081606004+65950+029200FM-12+025699999V0200501N004119999999N0000001N9+00561+99999098111ADDAJ100009199999999GF108991999999999999999999
0029028690999991912081613004+65950+029200FM-12+025699999V0200901N004119999999N0000001N9+00831+99999097901ADDGF108991999999999999999999
0029028690999991912081620004+65950+029200FM-12+025699999V0209991C000019999999N0000001N9+00721+99999097751ADDGF108991999999999999999999
0052028690999991912081706004+65950+029200FM-12+025699999V0209991C000019999999N0000001N9+00781+99999097561ADDAJ100009199999999GF108991999999999999999999MW1621
0029028690999991912081713004+65950+029200FM-12+025699999V0201401N002119999999N0000001N9+00941+99999097481ADDGF106991999999999999999999
0029028690999991912081720004+65950+029200FM-12+025699999V0200901N004119999999N0000001N9+00781+99999097641ADDGF108991999999999999999999
0046028690999991912081806004+65950+029200FM-12+025699999V0200901N006219999999N0000001N9+00831+99999097921ADDAJ100009199999999GF108991999999999999999999
0029028690999991912081813004+65950+029200FM-12+025699999V0200901N006219999999N0000001N9+01061+99999098161ADDGF108991999999999999999999
0029028690999991912081820004+65950+029200FM-12+025699999V0200901N006219999999N0000001N9+01061+99999098471ADDGF108991999999999999999999
0046028690999991912081906004+65950+029200FM-12+025699999V0200901N002119999999N0000001N9+00941+99999098861ADDAJ100009199999999GF108991999999999999999999
0035028690999991912081913004+65950+029200FM-12+025699999V0209991C000019999999N0000001N9+01281+99999098841ADDGF108991999999999999999999MW1621
0029028690999991912081920004+65950+029200FM-12+025699999V0200501N002119999999N0000001N9+01001+99999098721ADDGF105991999999999999999999
0046028690999991912082006004+65950+029200FM-12+025699999V0200901N006219999999N0000001N9+00891+99999098911ADDAJ100009199999999GF106991999999999999999999
0029028690999991912082013004+65950+029200FM-12+025699999V0201101N006219999999N0000001N9+01001+99999099231ADDGF108991999999999999999999
0029028690999991912082020004+65950+029200FM-12+025699999V0200901N004119999999N0000001N9+00891+99999099351ADDGF106991999999999999999999
0046028690999991912082106004+65950+029200FM-12+025699999V0209991C000019999999N0000001N9+00781+99999099351ADDAJ100009199999999GF108991999999999999999999
0029028690999991912082113004+65950+029200FM-12+025699999V0201101N004119999999N0000001N9+00941+99999099191ADDGF108991999999999999999999
0029028690999991912082120004+65950+029200FM-12+025699999V0200901N004119999999N0000001N9+00721+99999099041ADDGF102991999999999999999999
0046028690999991912082206004+65950+029200FM-12+025699999V0209991C000019999999N0000001N9+00561+99999098841ADDAJ100009199999999GF105991999999999999999999
0029028690999991912082213004+65950+029200FM-12+025699999V0201401N002119999999N0000001N9+01111+99999098641ADDGF102991999999999999999999
0029028690999991912082220004+65950+029200FM-12+025699999V0201601N004119999999N0000001N9+00831+99999098471ADDGF108991999999999999999999
0046028690999991912082306004+65950+029200FM-12+025699999V0202301N004119999999N0000001N9+00501+99999098311ADDAJ100009199999999GF105991999999999999999999
0029028690999991912082313004+65950+029200FM-12+025699999V0202701N004119999999N0000001N9+00831+99999098061ADDGF108991999999999999999999
0029028690999991912082320004+65950+029200FM-12+025699999V0209991C000019999999N0000001N9+00831+99999097831ADDGF108991999999999999999999
0046028690999991912082406004+65950+029200FM-12+025699999V0202301N002119999999N0000001N9+00891+99999097601ADDAJ100009199999999GF108991999999999999999999
0029028690999991912082413004+65950+029200FM-12+025699999V0201801N006219999999N0000001N9+00781+99999097561ADDGF108991999999999999999999
0035028690999991912082420004+65950+029200FM-12+025699999V0202301N008219999999N0000001N9+01001+99999097431ADDGF108991999999999999999999MW1621
0046028690999991912082506004+65950+029200FM-12+025699999V0202301N008219999999N0000001N9+01001+99999097461ADDAJ100009199999999GF108991999999999999999999
0029028690999991912082513004+65950+029200FM-12+025699999V0201801N006219999999N0000001N9+01221+99999097461ADDGF108991999999999999999999
0035028690999991912082520004+65950+029200FM-12+025699999V0202301N002119999999N0000001N9+00941+99999097461ADDGF108991999999999999999999MW1621
0046028690999991912082606004+65950+029200FM-12+025699999V0201801N006219999999N0000001N9+00891+99999097151ADDAJ100009199999999GF108991999999999999999999
0029028690999991912082613004+65950+029200FM-12+025699999V0201801N008219999999N0000001N9+01281+99999096761ADDGF106991999999999999999999
0029028690999991912082620004+65950+029200FM-12+025699999V0201801N004119999999N0000001N9+01001+99999096631ADDGF105991999999999999999999
0046028690999991912082706004+65950+029200FM-12+025699999V0202301N002119999999N0000001N9+00941+99999096441ADDAJ100009199999999GF108991999999999999999999
0029028690999991912082713004+65950+029200FM-12+025699999V0203201N006219999999N0000001N9+00781+99999096751ADDGF108991999999999999999999
0029028690999991912082720004+65950+029200FM-12+025699999V0203601N002119999999N0000001N9+00331+99999097101ADDGF100991999999999999999999
0046028690999991912082806004+65950+029200FM-12+025699999V0200501N008219999999N0000001N9+00281+99999097361ADDAJ100009199999999GF108991999999999999999999
0029028690999991912082813004+65950+029200FM-12+025699999V0200701N008219999999N0000001N9+00671+99999097351ADDGF108991999999999999999999
0035028690999991912082820004+65950+029200FM-12+025699999V0200701N011819999999N0000001N9+00561+99999097061ADDGF108991999999999999999999MW1621
